{
  "_format": "hh-sol-artifact-1",
  "contractName": "SampleERC5006",
  "sourceName": "contracts/SampleERC5006.sol",
  "abi": [
    {
      "inputs": [],
      "stateMutability": "nonpayable",
      "type": "constructor"
    },
    {
      "anonymous": false,
      "inputs": [
        {
          "indexed": true,
          "internalType": "address",
          "name": "account",
          "type": "address"
        },
        {
          "indexed": true,
          "internalType": "address",
          "name": "operator",
          "type": "address"
        },
        {
          "indexed": false,
          "internalType": "bool",
          "name": "approved",
          "type": "bool"
        }
      ],
      "name": "ApprovalForAll",
      "type": "event"
    },
    {
      "anonymous": false,
      "inputs": [
        {
          "indexed": false,
          "internalType": "uint256",
          "name": "recordId",
          "type": "uint256"
        },
        {
          "indexed": false,
          "internalType": "uint256",
          "name": "tokenId",
          "type": "uint256"
        },
        {
          "indexed": false,
          "internalType": "uint64",
          "name": "amount",
          "type": "uint64"
        },
        {
          "indexed": false,
          "internalType": "address",
          "name": "owner",
          "type": "address"
        },
        {
          "indexed": false,
          "internalType": "address",
          "name": "user",
          "type": "address"
        },
        {
          "indexed": false,
          "internalType": "uint64",
          "name": "expiry",
          "type": "uint64"
        }
      ],
      "name": "CreateUserRecord",
      "type": "event"
    },
    {
      "anonymous": false,
      "inputs": [
        {
          "indexed": false,
          "internalType": "uint256",
          "name": "recordId",
          "type": "uint256"
        }
      ],
      "name": "DeleteUserRecord",
      "type": "event"
    },
    {
      "anonymous": false,
      "inputs": [
        {
          "indexed": true,
          "internalType": "address",
          "name": "previousOwner",
          "type": "address"
        },
        {
          "indexed": true,
          "internalType": "address",
          "name": "newOwner",
          "type": "address"
        }
      ],
      "name": "OwnershipTransferred",
      "type": "event"
    },
    {
      "anonymous": false,
      "inputs": [
        {
          "indexed": true,
          "internalType": "address",
          "name": "operator",
          "type": "address"
        },
        {
          "indexed": true,
          "internalType": "address",
          "name": "from",
          "type": "address"
        },
        {
          "indexed": true,
          "internalType": "address",
          "name": "to",
          "type": "address"
        },
        {
          "indexed": false,
          "internalType": "uint256[]",
          "name": "ids",
          "type": "uint256[]"
        },
        {
          "indexed": false,
          "internalType": "uint256[]",
          "name": "values",
          "type": "uint256[]"
        }
      ],
      "name": "TransferBatch",
      "type": "event"
    },
    {
      "anonymous": false,
      "inputs": [
        {
          "indexed": true,
          "internalType": "address",
          "name": "operator",
          "type": "address"
        },
        {
          "indexed": true,
          "internalType": "address",
          "name": "from",
          "type": "address"
        },
        {
          "indexed": true,
          "internalType": "address",
          "name": "to",
          "type": "address"
        },
        {
          "indexed": false,
          "internalType": "uint256",
          "name": "id",
          "type": "uint256"
        },
        {
          "indexed": false,
          "internalType": "uint256",
          "name": "value",
          "type": "uint256"
        }
      ],
      "name": "TransferSingle",
      "type": "event"
    },
    {
      "anonymous": false,
      "inputs": [
        {
          "indexed": false,
          "internalType": "string",
          "name": "value",
          "type": "string"
        },
        {
          "indexed": true,
          "internalType": "uint256",
          "name": "id",
          "type": "uint256"
        }
      ],
      "name": "URI",
      "type": "event"
    },
    {
      "inputs": [
        {
          "internalType": "uint256",
          "name": "",
          "type": "uint256"
        }
      ],
      "name": "_tokenRecords",
      "outputs": [
        {
          "internalType": "uint256",
          "name": "tokenId",
          "type": "uint256"
        },
        {
          "internalType": "uint256",
          "name": "price",
          "type": "uint256"
        },
        {
          "internalType": "uint256",
          "name": "copies",
          "type": "uint256"
        },
        {
          "internalType": "uint256",
          "name": "startTime",
          "type": "uint256"
        },
        {
          "internalType": "uint256",
          "name": "endTime",
          "type": "uint256"
        },
        {
          "internalType": "address",
          "name": "lender",
          "type": "address"
        },
        {
          "internalType": "address",
          "name": "rentedTo",
          "type": "address"
        },
        {
          "internalType": "uint256",
          "name": "recordId5006",
          "type": "uint256"
        }
      ],
      "stateMutability": "view",
      "type": "function"
    },
    {
      "inputs": [
        {
          "internalType": "address",
          "name": "account",
          "type": "address"
        },
        {
          "internalType": "uint256",
          "name": "id",
          "type": "uint256"
        }
      ],
      "name": "balanceOf",
      "outputs": [
        {
          "internalType": "uint256",
          "name": "",
          "type": "uint256"
        }
      ],
      "stateMutability": "view",
      "type": "function"
    },
    {
      "inputs": [
        {
          "internalType": "address[]",
          "name": "accounts",
          "type": "address[]"
        },
        {
          "internalType": "uint256[]",
          "name": "ids",
          "type": "uint256[]"
        }
      ],
      "name": "balanceOfBatch",
      "outputs": [
        {
          "internalType": "uint256[]",
          "name": "",
          "type": "uint256[]"
        }
      ],
      "stateMutability": "view",
      "type": "function"
    },
    {
      "inputs": [
        {
          "internalType": "address",
          "name": "lender",
          "type": "address"
        },
        {
          "internalType": "uint256",
          "name": "token_id",
          "type": "uint256"
        },
        {
          "internalType": "uint256",
          "name": "copies",
          "type": "uint256"
        }
      ],
      "name": "borrowToken",
      "outputs": [],
      "stateMutability": "payable",
      "type": "function"
    },
    {
      "inputs": [
        {
          "internalType": "address",
          "name": "from",
          "type": "address"
        },
        {
          "internalType": "uint256",
          "name": "id",
          "type": "uint256"
        },
        {
          "internalType": "uint256",
          "name": "copies",
          "type": "uint256"
        }
      ],
      "name": "burn",
      "outputs": [],
      "stateMutability": "nonpayable",
      "type": "function"
    },
    {
      "inputs": [
        {
          "internalType": "address",
          "name": "owner",
          "type": "address"
        },
        {
          "internalType": "address",
          "name": "user",
          "type": "address"
        },
        {
          "internalType": "uint256",
          "name": "tokenId",
          "type": "uint256"
        },
        {
          "internalType": "uint64",
          "name": "amount",
          "type": "uint64"
        },
        {
          "internalType": "uint64",
          "name": "expiry",
          "type": "uint64"
        }
      ],
      "name": "createUserRecord",
      "outputs": [
        {
          "internalType": "uint256",
          "name": "",
          "type": "uint256"
        }
      ],
      "stateMutability": "nonpayable",
      "type": "function"
    },
    {
      "inputs": [
        {
          "internalType": "uint256",
          "name": "recordId",
          "type": "uint256"
        }
      ],
      "name": "deleteUserRecord",
      "outputs": [],
      "stateMutability": "nonpayable",
      "type": "function"
    },
    {
      "inputs": [
        {
          "internalType": "address",
          "name": "account",
          "type": "address"
        },
        {
          "internalType": "uint256",
          "name": "tokenId",
          "type": "uint256"
        }
      ],
      "name": "frozenBalanceOf",
      "outputs": [
        {
          "internalType": "uint256",
          "name": "",
          "type": "uint256"
        }
      ],
      "stateMutability": "view",
      "type": "function"
    },
    {
      "inputs": [],
      "name": "getBorrowedRecordId",
      "outputs": [
        {
          "internalType": "uint256[]",
          "name": "",
          "type": "uint256[]"
        }
      ],
      "stateMutability": "view",
      "type": "function"
    },
    {
      "inputs": [],
      "name": "getLenderAvailableTokens",
      "outputs": [
        {
          "internalType": "uint256[]",
          "name": "",
          "type": "uint256[]"
        }
      ],
      "stateMutability": "view",
      "type": "function"
    },
    {
      "inputs": [
        {
          "internalType": "uint256",
          "name": "token_id",
          "type": "uint256"
        }
      ],
      "name": "getLenderFrozenBalance",
      "outputs": [
        {
          "internalType": "uint256",
          "name": "",
          "type": "uint256"
        }
      ],
      "stateMutability": "view",
      "type": "function"
    },
    {
      "inputs": [
        {
          "internalType": "uint256",
          "name": "token_id",
          "type": "uint256"
        }
      ],
      "name": "getMarkedRecordIds",
      "outputs": [
        {
          "internalType": "uint256[]",
          "name": "",
          "type": "uint256[]"
        }
      ],
      "stateMutability": "view",
      "type": "function"
    },
    {
      "inputs": [
        {
          "internalType": "uint256",
          "name": "token_id",
          "type": "uint256"
        }
      ],
      "name": "getOnRentRecordIds",
      "outputs": [
        {
          "internalType": "uint256[]",
          "name": "",
          "type": "uint256[]"
        }
      ],
      "stateMutability": "view",
      "type": "function"
    },
    {
      "inputs": [
        {
          "internalType": "address",
          "name": "account",
          "type": "address"
        },
        {
          "internalType": "address",
          "name": "operator",
          "type": "address"
        }
      ],
      "name": "isApprovedForAll",
      "outputs": [
        {
          "internalType": "bool",
          "name": "",
          "type": "bool"
        }
      ],
      "stateMutability": "view",
      "type": "function"
    },
    {
      "inputs": [
        {
          "internalType": "address",
          "name": "owner",
          "type": "address"
        }
      ],
      "name": "isOwnerOrApproved",
      "outputs": [
        {
          "internalType": "bool",
          "name": "",
          "type": "bool"
        }
      ],
      "stateMutability": "view",
      "type": "function"
    },
    {
      "inputs": [
        {
          "internalType": "uint256",
          "name": "token_id",
          "type": "uint256"
        },
        {
          "internalType": "uint256",
          "name": "copies",
          "type": "uint256"
        },
        {
          "internalType": "uint256",
          "name": "price",
          "type": "uint256"
        },
        {
          "internalType": "uint256",
          "name": "startTime",
          "type": "uint256"
        },
        {
          "internalType": "uint256",
          "name": "endTime",
          "type": "uint256"
        }
      ],
      "name": "markForRent",
      "outputs": [],
      "stateMutability": "nonpayable",
      "type": "function"
    },
    {
      "inputs": [
        {
          "internalType": "uint256",
          "name": "copies",
          "type": "uint256"
        }
      ],
      "name": "mintToken",
      "outputs": [],
      "stateMutability": "nonpayable",
      "type": "function"
    },
    {
      "inputs": [
        {
          "internalType": "address",
          "name": "operator",
          "type": "address"
        },
        {
          "internalType": "address",
          "name": "from",
          "type": "address"
        },
        {
          "internalType": "uint256[]",
          "name": "ids",
          "type": "uint256[]"
        },
        {
          "internalType": "uint256[]",
          "name": "values",
          "type": "uint256[]"
        },
        {
          "internalType": "bytes",
          "name": "data",
          "type": "bytes"
        }
      ],
      "name": "onERC1155BatchReceived",
      "outputs": [
        {
          "internalType": "bytes4",
          "name": "",
          "type": "bytes4"
        }
      ],
      "stateMutability": "pure",
      "type": "function"
    },
    {
      "inputs": [
        {
          "internalType": "address",
          "name": "operator",
          "type": "address"
        },
        {
          "internalType": "address",
          "name": "from",
          "type": "address"
        },
        {
          "internalType": "uint256",
          "name": "tokenId",
          "type": "uint256"
        },
        {
          "internalType": "uint256",
          "name": "value",
          "type": "uint256"
        },
        {
          "internalType": "bytes",
          "name": "data",
          "type": "bytes"
        }
      ],
      "name": "onERC1155Received",
      "outputs": [
        {
          "internalType": "bytes4",
          "name": "",
          "type": "bytes4"
        }
      ],
      "stateMutability": "pure",
      "type": "function"
    },
    {
      "inputs": [],
      "name": "owner",
      "outputs": [
        {
          "internalType": "address",
          "name": "",
          "type": "address"
        }
      ],
      "stateMutability": "view",
      "type": "function"
    },
    {
      "inputs": [],
      "name": "renounceOwnership",
      "outputs": [],
      "stateMutability": "nonpayable",
      "type": "function"
    },
    {
      "inputs": [
        {
          "internalType": "address",
          "name": "from",
          "type": "address"
        },
        {
          "internalType": "address",
          "name": "to",
          "type": "address"
        },
        {
          "internalType": "uint256[]",
          "name": "ids",
          "type": "uint256[]"
        },
        {
          "internalType": "uint256[]",
          "name": "amounts",
          "type": "uint256[]"
        },
        {
          "internalType": "bytes",
          "name": "data",
          "type": "bytes"
        }
      ],
      "name": "safeBatchTransferFrom",
      "outputs": [],
      "stateMutability": "nonpayable",
      "type": "function"
    },
    {
      "inputs": [
        {
          "internalType": "address",
          "name": "from",
          "type": "address"
        },
        {
          "internalType": "address",
          "name": "to",
          "type": "address"
        },
        {
          "internalType": "uint256",
          "name": "id",
          "type": "uint256"
        },
        {
          "internalType": "uint256",
          "name": "amount",
          "type": "uint256"
        },
        {
          "internalType": "bytes",
          "name": "data",
          "type": "bytes"
        }
      ],
      "name": "safeTransferFrom",
      "outputs": [],
      "stateMutability": "nonpayable",
      "type": "function"
    },
    {
      "inputs": [
        {
          "internalType": "address",
          "name": "operator",
          "type": "address"
        },
        {
          "internalType": "bool",
          "name": "approved",
          "type": "bool"
        }
      ],
      "name": "setApprovalForAll",
      "outputs": [],
      "stateMutability": "nonpayable",
      "type": "function"
    },
    {
      "inputs": [
        {
          "internalType": "bytes4",
          "name": "interfaceId",
          "type": "bytes4"
        }
      ],
      "name": "supportsInterface",
      "outputs": [
        {
          "internalType": "bool",
          "name": "",
          "type": "bool"
        }
      ],
      "stateMutability": "view",
      "type": "function"
    },
    {
      "inputs": [
        {
          "internalType": "address",
          "name": "newOwner",
          "type": "address"
        }
      ],
      "name": "transferOwnership",
      "outputs": [],
      "stateMutability": "nonpayable",
      "type": "function"
    },
    {
      "inputs": [
        {
          "internalType": "uint256",
          "name": "",
          "type": "uint256"
        }
      ],
      "name": "uri",
      "outputs": [
        {
          "internalType": "string",
          "name": "",
          "type": "string"
        }
      ],
      "stateMutability": "view",
      "type": "function"
    },
    {
      "inputs": [
        {
          "internalType": "address",
          "name": "account",
          "type": "address"
        },
        {
          "internalType": "uint256",
          "name": "tokenId",
          "type": "uint256"
        }
      ],
      "name": "usableBalanceOf",
      "outputs": [
        {
          "internalType": "uint256",
          "name": "amount",
          "type": "uint256"
        }
      ],
      "stateMutability": "view",
      "type": "function"
    },
    {
      "inputs": [
        {
          "internalType": "uint256",
          "name": "recordId",
          "type": "uint256"
        }
      ],
      "name": "userRecordOf",
      "outputs": [
        {
          "components": [
            {
              "internalType": "uint256",
              "name": "tokenId",
              "type": "uint256"
            },
            {
              "internalType": "address",
              "name": "owner",
              "type": "address"
            },
            {
              "internalType": "uint64",
              "name": "amount",
              "type": "uint64"
            },
            {
              "internalType": "address",
              "name": "user",
              "type": "address"
            },
            {
              "internalType": "uint64",
              "name": "expiry",
              "type": "uint64"
            }
          ],
          "internalType": "struct IERC5006.UserRecord",
          "name": "",
          "type": "tuple"
        }
      ],
      "stateMutability": "view",
      "type": "function"
    },
    {
      "inputs": [],
      "name": "validateLendedTokens",
      "outputs": [
        {
          "internalType": "uint256",
          "name": "",
          "type": "uint256"
        }
      ],
      "stateMutability": "nonpayable",
      "type": "function"
    }
  ],
  "bytecode": "0x60806040523480156200001157600080fd5b506040805160208101909152600081526006816200002f8162000057565b50600755506200003f3362000069565b600980546001600160a01b031916301790556200022c565b600262000065828262000160565b5050565b600880546001600160a01b038381166001600160a01b0319831681179093556040519116919082907f8be0079c531659141344cd1fd0a4f28419497f9722a3daafe3b4186f6b6457e090600090a35050565b634e487b7160e01b600052604160045260246000fd5b600181811c90821680620000e657607f821691505b6020821081036200010757634e487b7160e01b600052602260045260246000fd5b50919050565b601f8211156200015b57600081815260208120601f850160051c81016020861015620001365750805b601f850160051c820191505b81811015620001575782815560010162000142565b5050505b505050565b81516001600160401b038111156200017c576200017c620000bb565b62000194816200018d8454620000d1565b846200010d565b602080601f831160018114620001cc5760008415620001b35750858301515b600019600386901b1c1916600185901b17855562000157565b600085815260208120601f198616915b82811015620001fd57888601518255948401946001909101908401620001dc565b50858210156200021c5787850151600019600388901b60f8161c191681555b5050505050600190811b01905550565b613bc4806200023c6000396000f3fe6080604052600436106101cc5760003560e01c8063a22cb465116100f7578063e6cfb63c11610095578063f242432a11610064578063f242432a146106a4578063f2fde38b146106c4578063f5298aca146106e4578063f5b3f4241461070457600080fd5b8063e6cfb63c14610593578063e985e9c5146105b3578063f0af245a146105fc578063f23a6e611461067757600080fd5b8063c634d032116100d1578063c634d0321461051e578063cfd44f351461053e578063d05d280214610553578063def2cc561461057357600080fd5b8063a22cb46514610496578063b6487cbc146104b6578063bc197c81146104d657600080fd5b80634a2e88f71161016f5780635c9efd001161013e5780635c9efd0014610424578063715018a614610439578063883d1d5f1461044e5780638da5cb5b1461046e57600080fd5b80634a2e88f7146102cb5780634e1273f41461037d5780634fcad101146103aa578063535c0ce3146103e257600080fd5b80630e89341c116101ab5780630e89341c14610249578063237c7dbb146102765780632eb2c2d61461028b57806337516f7c146102ab57600080fd5b8062fdd58e146101d157806301ffc9a71461020457806308a746fa14610234575b600080fd5b3480156101dd57600080fd5b506101f16101ec36600461308b565b610724565b6040519081526020015b60405180910390f35b34801561021057600080fd5b5061022461021f3660046130cb565b6107bd565b60405190151581526020016101fb565b34801561024057600080fd5b506101f16107f1565b34801561025557600080fd5b506102696102643660046130e8565b610c4d565b6040516101fb919061314e565b610289610284366004613161565b610ce1565b005b34801561029757600080fd5b506102896102a63660046132dd565b611297565b3480156102b757600080fd5b506102896102c63660046130e8565b6112dc565b3480156102d757600080fd5b506103366102e63660046130e8565b600d6020526000908152604090208054600182015460028301546003840154600485015460058601546006870154600790970154959694959394929391926001600160a01b039182169291169088565b60408051988952602089019790975295870194909452606086019290925260808501526001600160a01b0390811660a08501521660c083015260e0820152610100016101fb565b34801561038957600080fd5b5061039d610398366004613386565b61143c565b6040516101fb919061348b565b3480156103b657600080fd5b506101f16103c53660046130e8565b336000908152601060209081526040808320938352929052205490565b3480156103ee57600080fd5b506101f16103fd36600461308b565b60009081526003602090815260408083206001600160a01b03949094168352929052205490565b34801561043057600080fd5b5061039d611565565b34801561044557600080fd5b50610289611585565b34801561045a57600080fd5b506101f16104693660046134b5565b611599565b34801561047a57600080fd5b506008546040516001600160a01b0390911681526020016101fb565b3480156104a257600080fd5b506102896104b1366004613513565b6118ef565b3480156104c257600080fd5b5061039d6104d13660046130e8565b6118fe565b3480156104e257600080fd5b506105056104f13660046135db565b63bc197c8160e01b98975050505050505050565b6040516001600160e01b031990911681526020016101fb565b34801561052a57600080fd5b506102896105393660046130e8565b611968565b34801561054a57600080fd5b5061039d61199d565b34801561055f57600080fd5b5061039d61056e3660046130e8565b6119fe565b34801561057f57600080fd5b506101f161058e36600461308b565b611a67565b34801561059f57600080fd5b506102896105ae366004613695565b611b68565b3480156105bf57600080fd5b506102246105ce3660046136d0565b6001600160a01b03918216600090815260016020908152604080832093909416825291909152205460ff1690565b34801561060857600080fd5b5061061c6106173660046130e8565b611f96565b60408051825181526020808401516001600160a01b0390811691830191909152838301516001600160401b0390811693830193909352606080850151909116908201526080928301519091169181019190915260a0016101fb565b34801561068357600080fd5b50610505610692366004613703565b63f23a6e6160e01b9695505050505050565b3480156106b057600080fd5b506102896106bf36600461377a565b61202c565b3480156106d057600080fd5b506102896106df3660046137de565b612071565b3480156106f057600080fd5b506102896106ff366004613161565b6120ea565b34801561071057600080fd5b5061022461071f3660046137de565b6120fa565b60006001600160a01b0383166107945760405162461bcd60e51b815260206004820152602a60248201527f455243313135353a2061646472657373207a65726f206973206e6f742061207660448201526930b634b21037bbb732b960b11b60648201526084015b60405180910390fd5b506000818152602081815260408083206001600160a01b03861684529091529020545b92915050565b60006001600160e01b0319821663309b65b360e21b14806107e257506107e282612165565b806107b757506107b7826121b5565b336000908152601160205260408120819061080b906121da565b90506000805b8251811015610c465760005b336000908152600f602052604081208551909190869085908110610843576108436137f9565b6020026020010151815260200190815260200160002080549050811015610c3357336000908152600f6020526040812085516108dc91600d9184919082908a9089908110610893576108936137f9565b6020026020010151815260200190815260200160002085815481106108ba576108ba6137f9565b9060005260206000200154815260200190815260200160002060070154611f96565b60208101519091506001600160a01b03163314801561090757504281608001516001600160401b0316105b15610c2057336000908152600f6020526040812086516109709290889087908110610934576109346137f9565b60200260200101518152602001908152602001600020838154811061095b5761095b6137f9565b906000526020600020015482606001516121ee565b336000908152600f602052604081208651610a1d9290889087908110610998576109986137f9565b6020026020010151815260200190815260200160002083815481106109bf576109bf6137f9565b90600052602060002001546000908152600d60205260408120818155600181018290556002810182905560038101829055600481018290556005810180546001600160a01b0319908116909155600682018054909116905560070155565b6040808201516020808401516001600160a01b03166000908152601082528381208551825290915291822080546001600160401b03909216929091610a63908490613825565b909155505060208101518151610a79919061239e565b336000908152600f602052604081208651909190879086908110610a9f57610a9f6137f9565b602002602001015181526020019081526020016000206001600f6000336001600160a01b03166001600160a01b031681526020019081526020016000206000888781518110610af057610af06137f9565b6020026020010151815260200190815260200160002080549050610b149190613825565b81548110610b2457610b246137f9565b9060005260206000200154600f6000336001600160a01b03166001600160a01b031681526020019081526020016000206000878681518110610b6857610b686137f9565b602002602001015181526020019081526020016000208381548110610b8f57610b8f6137f9565b9060005260206000200181905550600f6000336001600160a01b03166001600160a01b031681526020019081526020016000206000868581518110610bd657610bd66137f9565b60200260200101518152602001908152602001600020805480610bfb57610bfb61383c565b600190038181906000526020600020016000905590558380610c1c90613852565b9450505b5080610c2b81613852565b91505061081d565b5080610c3e81613852565b915050610811565b5092915050565b606060028054610c5c9061386b565b80601f0160208091040260200160405190810160405280929190818152602001828054610c889061386b565b8015610cd55780601f10610caa57610100808354040283529160200191610cd5565b820191906000526020600020905b815481529060010190602001808311610cb857829003601f168201915b50505050509050919050565b6001600160a01b0383166000908152601060209081526040808320858452909152902054811115610d7a5760405162461bcd60e51b815260206004820152603760248201527f53616d706c65353030363a204c656e64657220646964206e6f74206d61726b6560448201527f6420656e6f75676820746f6b656e20666f722072656e74000000000000000000606482015260840161078b565b6001600160a01b0383163303610dde5760405162461bcd60e51b8152602060048201526024808201527f53616d706c65353030363a2043616e27742062757920796f7572206f776e207460448201526337b5b2b760e11b606482015260840161078b565b6001600160a01b0383166000908152600e60209081526040808320858452825280832080548251818502810185019093528083529192909190830182828015610e4657602002820191906000526020600020905b815481526020019060010190808311610e32575b50505050509050600080600090505b82518110156112425784600d6000858481518110610e7557610e756137f9565b6020026020010151815260200190815260200160002060000154148015610ee05750856001600160a01b0316600d6000858481518110610eb757610eb76137f9565b6020908102919091018101518252810191909152604001600020600501546001600160a01b0316145b8015610f1a575083600d6000858481518110610efe57610efe6137f9565b6020026020010151815260200190815260200160002060020154145b8015610f54575034600d6000858481518110610f3857610f386137f9565b6020026020010151815260200190815260200160002060010154145b1561123057600191506000600960009054906101000a90046001600160a01b03166001600160a01b031663883d1d5f88338989600d60008b8a81518110610f9d57610f9d6137f9565b60200260200101518152602001908152602001600020600401546040518663ffffffff1660e01b815260040161100f9594939291906001600160a01b03958616815293909416602084015260408301919091526001600160401b03908116606083015291909116608082015260a00190565b6020604051808303816000875af115801561102e573d6000803e3d6000fd5b505050506040513d601f19601f8201168201806040525081019061105291906138a5565b336000908152601260205260409020855191925090859084908110611079576110796137f9565b6020908102919091018101518254600181018455600093845291832090910155845161113b918491600d91908890849081106110b7576110b76137f9565b602090810291909101810151825281810192909252604090810160002081516101008101835281548152600182015493810193909352600281015491830191909152600381015460608301526004810154608083015260058101546001600160a01b0390811660a084015260068201541660c08301526007015460e08201526123ea565b33600d6000868581518110611152576111526137f9565b6020026020010151815260200190815260200160002060060160006101000a8154816001600160a01b0302191690836001600160a01b0316021790555080600d60008685815181106111a6576111a66137f9565b6020026020010151815260200190815260200160002060070181905550600f6000886001600160a01b03166001600160a01b03168152602001908152602001600020600087815260200190815260200160002084838151811061120b5761120b6137f9565b6020908102919091018101518254600181018455600093845291909220015550611242565b8061123a81613852565b915050610e55565b50806112905760405162461bcd60e51b815260206004820152601c60248201527f53616d706c65353030363a205265636f7264206e6f7420666f756e6400000000604482015260640161078b565b5050505050565b6001600160a01b0385163314806112b357506112b385336105ce565b6112cf5760405162461bcd60e51b815260040161078b906138be565b61129085858585856124e3565b60008181526004602052604090206001810154611301906001600160a01b03166120fa565b61130a57600080fd5b600181015481546040805160208101909152600081526113499230926001600160a01b038216929091600160a01b90046001600160401b0316906126c0565b6001810154815460009081526003602090815260408083206001600160a01b038516845290915281208054600160a01b9093046001600160401b031692909190611394908490613825565b90915550508054600090815260056020908152604080832060028501546001600160a01b0316845290915290206113cb90836127ea565b506000828152600460205260408082209182556001820180546001600160e01b031990811690915560029092018054909216909155517fe5e4cc148925690191c27bf527786e1ffbc70eb2e0e1efc9cafc6429b1ee777a906114309084815260200190565b60405180910390a15050565b606081518351146114a15760405162461bcd60e51b815260206004820152602960248201527f455243313135353a206163636f756e747320616e6420696473206c656e677468604482015268040dad2e6dac2e8c6d60bb1b606482015260840161078b565b600083516001600160401b038111156114bc576114bc613194565b6040519080825280602002602001820160405280156114e5578160200160208202803683370190505b50905060005b845181101561155d57611530858281518110611509576115096137f9565b6020026020010151858381518110611523576115236137f9565b6020026020010151610724565b828281518110611542576115426137f9565b602090810291909101015261155681613852565b90506114eb565b509392505050565b336000908152601160205260409020606090611580906121da565b905090565b61158d6127f6565b6115976000612850565b565b60006115a4866120fa565b6115ad57600080fd5b6001600160a01b0385166116035760405162461bcd60e51b815260206004820152601f60248201527f757365722063616e6e6f7420626520746865207a65726f206164647265737300604482015260640161078b565b6000836001600160401b03161161165c5760405162461bcd60e51b815260206004820152601d60248201527f616d6f756e74206d7573742062652067726561746572207468616e2030000000604482015260640161078b565b42826001600160401b0316116116c25760405162461bcd60e51b815260206004820152602560248201527f657870697279206d7573742061667465722074686520626c6f636b2074696d6560448201526407374616d760dc1b606482015260840161078b565b60075460008581526005602090815260408083206001600160a01b038a16845290915290206116f0906128a2565b1061173d5760405162461bcd60e51b815260206004820152601d60248201527f757365722063616e6e6f742068617665206d6f7265207265636f726473000000604482015260640161078b565b611762863086866001600160401b0316604051806020016040528060008152506126c0565b60008481526003602090815260408083206001600160a01b038a168452909152812080546001600160401b038616929061179d90849061390c565b9091555050600680549060006117b283613852565b90915550506040805160a0810182528581526001600160a01b0388811660208084019182526001600160401b038881168587019081528b8516606087018181528a841660808901908152600680546000908152600488528b81209a518b55975160018b0180549651918b166001600160e01b031997881617600160a01b928916830217905592516002909a01805492519a9099169190941617979093169092029590951790935592548882526005845284822092825291909252919020611878916128ac565b5060065460408051918252602082018690526001600160401b03858116838301526001600160a01b03898116606085015288166080840152841660a0830152517faa05e03d03c60cd1d2749f96e50df9c0f2910357e2213b7fbb8c838c9e207d079181900360c00190a15060065495945050505050565b6118fa3383836128b8565b5050565b336000908152600e60209081526040808320848452825291829020805483518184028101840190945280845260609392830182828015610cd557602002820191906000526020600020905b8154815260200190600101908083116119495750505050509050919050565b61198533600a548360405180602001604052806000815250612998565b600a805490600061199583613852565b919050555050565b336000908152601260209081526040918290208054835181840281018401909452808452606093928301828280156119f457602002820191906000526020600020905b8154815260200190600101908083116119e0575b5050505050905090565b336000908152600f60209081526040808320848452825291829020805483518184028101840190945280845260609392830182828015610cd557602002820191906000526020600020908154815260200190600101908083116119495750505050509050919050565b60008181526005602090815260408083206001600160a01b038616845290915281208190611a94906121da565b905060005b8151811015611b605760046000838381518110611ab857611ab86137f9565b6020026020010151815260200190815260200160002060020160149054906101000a90046001600160401b03166001600160401b03164211611b4e5760046000838381518110611b0a57611b0a6137f9565b6020026020010151815260200190815260200160002060010160149054906101000a90046001600160401b03166001600160401b031683611b4b919061390c565b92505b80611b5881613852565b915050611a99565b505092915050565b3385856000611b778484610724565b6001600160a01b03851660009081526010602090815260408083208784529091529020549091508281831015611bb657611bb18383613825565b611bc0565b611bc08284613825565b1015611c275760405162461bcd60e51b815260206004820152603060248201527f53616d706c65353030363a204c656e64657220646f6e74206861766520656e6f60448201526f75676820746f6b656e20636f7069657360801b606482015260840161078b565b60008811611c9d5760405162461bcd60e51b815260206004820152603760248201527f53616d706c65353030363a2052656e74696e672070726963652073686f756c6460448201527f20626520626520676561746572207468616e207a65726f000000000000000000606482015260840161078b565b600087118015611cad5750600086115b611d055760405162461bcd60e51b8152602060048201526024808201527f53616d706c65353030363a2054696d657374616d702063616e6e6f74206265206044820152637a65726f60e01b606482015260840161078b565b42861015611d7b5760405162461bcd60e51b815260206004820152603860248201527f53616d706c65353030363a20456e642074696d652073686f756c64206265206760448201527f726561746572207468616e2063757272656e742074696d650000000000000000606482015260840161078b565b60008911611dd55760405162461bcd60e51b815260206004820152602160248201527f53616d706c65353030363a20436f706965732063616e6e6f74206265207a65726044820152606f60f81b606482015260840161078b565b6040518061010001604052808b81526020018981526020018a8152602001888152602001878152602001336001600160a01b0316815260200160006001600160a01b031681526020016000815250600d6000600b548152602001908152602001600020600082015181600001556020820151816001015560408201518160020155606082015181600301556080820151816004015560a08201518160050160006101000a8154816001600160a01b0302191690836001600160a01b0316021790555060c08201518160060160006101000a8154816001600160a01b0302191690836001600160a01b0316021790555060e08201518160070155905050600e6000336001600160a01b03166001600160a01b0316815260200190815260200160002060008b8152602001908152602001600020600b549080600181540180825580915050600190039060005260206000200160009091909190915055611f3a338b612aac565b3360009081526010602090815260408083208d8452909152812080548b9290611f6490849061390c565b90915550611f7590503060016118ef565b600b8054906000611f8583613852565b919050555050505050505050505050565b6040805160a08101825260008082526020820181905291810182905260608101829052608081019190915250600090815260046020908152604091829020825160a0810184528154815260018201546001600160a01b03808216948301949094526001600160401b03600160a01b9182900481169583019590955260029092015492831660608201529104909116608082015290565b6001600160a01b038516331480612048575061204885336105ce565b6120645760405162461bcd60e51b815260040161078b906138be565b61129085858585856126c0565b6120796127f6565b6001600160a01b0381166120de5760405162461bcd60e51b815260206004820152602660248201527f4f776e61626c653a206e6577206f776e657220697320746865207a65726f206160448201526564647265737360d01b606482015260840161078b565b6120e781612850565b50565b6120f5838383612af6565b505050565b60006001600160a01b038216331480612118575061211882336105ce565b61215d5760405162461bcd60e51b81526020600482015260166024820152751bdb9b1e481bdddb995c881bdc88185c1c1c9bdd995960521b604482015260640161078b565b506001919050565b60006001600160e01b03198216636cdb3d1360e11b148061219657506001600160e01b031982166303a24d0760e21b145b806107b757506301ffc9a760e01b6001600160e01b03198316146107b7565b60006001600160e01b03198216630271189760e51b14806107b757506107b782612165565b606060006121e783612c72565b9392505050565b60005b6001600160a01b0382166000908152601260205260409020548110156120f5576001600160a01b038216600090815260126020526040902080548491908390811061223e5761223e6137f9565b90600052602060002001540361238c576009546000848152600d602052604090819020600701549051630dd45bdf60e21b81526001600160a01b03909216916337516f7c916122939160040190815260200190565b600060405180830381600087803b1580156122ad57600080fd5b505af11580156122c1573d6000803e3d6000fd5b505050506001600160a01b038216600090815260126020526040902080546122eb90600190613825565b815481106122fb576122fb6137f9565b906000526020600020015460126000846001600160a01b03166001600160a01b03168152602001908152602001600020828154811061233c5761233c6137f9565b60009182526020808320909101929092556001600160a01b03841681526012909152604090208054806123715761237161383c565b60019003818190600052602060002001600090559055505050565b8061239681613852565b9150506121f1565b6001600160a01b038216600090815260106020908152604080832084845290915281205490036118fa576001600160a01b03821660009081526011602052604090206120f590826127ea565b60a0810180516001600160a01b039081166000908152600e6020818152604080842087518552825280842095519094168352908152828220855183529052205461243690600190613825565b81548110612446576124466137f9565b600091825260208083209091015460a08401516001600160a01b03168352600e82526040808420855185529092529120805484908110612488576124886137f9565b600091825260208083209091019290925560a08301516001600160a01b03168152600e8252604080822084518352909252208054806124c9576124c961383c565b600190038181906000526020600020016000905590555050565b81518351146125455760405162461bcd60e51b815260206004820152602860248201527f455243313135353a2069647320616e6420616d6f756e7473206c656e677468206044820152670dad2e6dac2e8c6d60c31b606482015260840161078b565b6001600160a01b03841661256b5760405162461bcd60e51b815260040161078b90613924565b3360005b845181101561265257600085828151811061258c5761258c6137f9565b6020026020010151905060008583815181106125aa576125aa6137f9565b602090810291909101810151600084815280835260408082206001600160a01b038e1683529093529190912054909150818110156125fa5760405162461bcd60e51b815260040161078b90613969565b6000838152602081815260408083206001600160a01b038e8116855292528083208585039055908b1682528120805484929061263790849061390c565b925050819055505050508061264b90613852565b905061256f565b50846001600160a01b0316866001600160a01b0316826001600160a01b03167f4a39dc06d4c0dbc64b70af90fd698a233a518aa5d07e595d983b8c0526c8f7fb87876040516126a29291906139b3565b60405180910390a46126b8818787878787612ccc565b505050505050565b6001600160a01b0384166126e65760405162461bcd60e51b815260040161078b90613924565b3360006126f285612e27565b905060006126ff85612e27565b90506000868152602081815260408083206001600160a01b038c168452909152902054858110156127425760405162461bcd60e51b815260040161078b90613969565b6000878152602081815260408083206001600160a01b038d8116855292528083208985039055908a1682528120805488929061277f90849061390c565b909155505060408051888152602081018890526001600160a01b03808b16928c821692918816917fc3d58168c5ae7397731d063d5bbf3d657854427343f4c083240f7aacaa2d0f62910160405180910390a46127df848a8a8a8a8a612e72565b505050505050505050565b60006121e78383612f2d565b6008546001600160a01b031633146115975760405162461bcd60e51b815260206004820181905260248201527f4f776e61626c653a2063616c6c6572206973206e6f7420746865206f776e6572604482015260640161078b565b600880546001600160a01b038381166001600160a01b0319831681179093556040519116919082907f8be0079c531659141344cd1fd0a4f28419497f9722a3daafe3b4186f6b6457e090600090a35050565b60006107b7825490565b60006121e78383613020565b816001600160a01b0316836001600160a01b03160361292b5760405162461bcd60e51b815260206004820152602960248201527f455243313135353a2073657474696e6720617070726f76616c20737461747573604482015268103337b91039b2b63360b91b606482015260840161078b565b6001600160a01b03838116600081815260016020908152604080832094871680845294825291829020805460ff191686151590811790915591519182527f17307eab39ab6107e8899845ad3d59bd9653f200f220920489ca2b5937696c31910160405180910390a3505050565b6001600160a01b0384166129f85760405162461bcd60e51b815260206004820152602160248201527f455243313135353a206d696e7420746f20746865207a65726f206164647265736044820152607360f81b606482015260840161078b565b336000612a0485612e27565b90506000612a1185612e27565b90506000868152602081815260408083206001600160a01b038b16845290915281208054879290612a4390849061390c565b909155505060408051878152602081018790526001600160a01b03808a1692600092918716917fc3d58168c5ae7397731d063d5bbf3d657854427343f4c083240f7aacaa2d0f62910160405180910390a4612aa383600089898989612e72565b50505050505050565b6001600160a01b03821660009081526010602090815260408083208484529091529020546118fa576001600160a01b03821660009081526011602052604090206120f590826128ac565b6001600160a01b038316612b585760405162461bcd60e51b815260206004820152602360248201527f455243313135353a206275726e2066726f6d20746865207a65726f206164647260448201526265737360e81b606482015260840161078b565b336000612b6484612e27565b90506000612b7184612e27565b60408051602080820183526000918290528882528181528282206001600160a01b038b1683529052205490915084811015612bfa5760405162461bcd60e51b8152602060048201526024808201527f455243313135353a206275726e20616d6f756e7420657863656564732062616c604482015263616e636560e01b606482015260840161078b565b6000868152602081815260408083206001600160a01b038b81168086529184528285208a8703905582518b81529384018a90529092908816917fc3d58168c5ae7397731d063d5bbf3d657854427343f4c083240f7aacaa2d0f62910160405180910390a4604080516020810190915260009052612aa3565b606081600001805480602002602001604051908101604052809291908181526020018280548015610cd557602002820191906000526020600020908154815260200190600101908083116119495750505050509050919050565b6001600160a01b0384163b156126b85760405163bc197c8160e01b81526001600160a01b0385169063bc197c8190612d1090899089908890889088906004016139e1565b6020604051808303816000875af1925050508015612d4b575060408051601f3d908101601f19168201909252612d4891810190613a3f565b60015b612df757612d57613a5c565b806308c379a003612d905750612d6b613a78565b80612d765750612d92565b8060405162461bcd60e51b815260040161078b919061314e565b505b60405162461bcd60e51b815260206004820152603460248201527f455243313135353a207472616e7366657220746f206e6f6e2d455243313135356044820152732932b1b2b4bb32b91034b6b83632b6b2b73a32b960611b606482015260840161078b565b6001600160e01b0319811663bc197c8160e01b14612aa35760405162461bcd60e51b815260040161078b90613b01565b60408051600180825281830190925260609160009190602080830190803683370190505090508281600081518110612e6157612e616137f9565b602090810291909101015292915050565b6001600160a01b0384163b156126b85760405163f23a6e6160e01b81526001600160a01b0385169063f23a6e6190612eb69089908990889088908890600401613b49565b6020604051808303816000875af1925050508015612ef1575060408051601f3d908101601f19168201909252612eee91810190613a3f565b60015b612efd57612d57613a5c565b6001600160e01b0319811663f23a6e6160e01b14612aa35760405162461bcd60e51b815260040161078b90613b01565b60008181526001830160205260408120548015613016576000612f51600183613825565b8554909150600090612f6590600190613825565b9050818114612fca576000866000018281548110612f8557612f856137f9565b9060005260206000200154905080876000018481548110612fa857612fa86137f9565b6000918252602080832090910192909255918252600188019052604090208390555b8554869080612fdb57612fdb61383c565b6001900381819060005260206000200160009055905585600101600086815260200190815260200160002060009055600193505050506107b7565b60009150506107b7565b6000818152600183016020526040812054613067575081546001818101845560008481526020808220909301849055845484825282860190935260409020919091556107b7565b5060006107b7565b80356001600160a01b038116811461308657600080fd5b919050565b6000806040838503121561309e57600080fd5b6130a78361306f565b946020939093013593505050565b6001600160e01b0319811681146120e757600080fd5b6000602082840312156130dd57600080fd5b81356121e7816130b5565b6000602082840312156130fa57600080fd5b5035919050565b6000815180845260005b818110156131275760208185018101518683018201520161310b565b81811115613139576000602083870101525b50601f01601f19169290920160200192915050565b6020815260006121e76020830184613101565b60008060006060848603121561317657600080fd5b61317f8461306f565b95602085013595506040909401359392505050565b634e487b7160e01b600052604160045260246000fd5b601f8201601f191681016001600160401b03811182821017156131cf576131cf613194565b6040525050565b60006001600160401b038211156131ef576131ef613194565b5060051b60200190565b600082601f83011261320a57600080fd5b81356020613217826131d6565b60405161322482826131aa565b83815260059390931b850182019282810191508684111561324457600080fd5b8286015b8481101561325f5780358352918301918301613248565b509695505050505050565b600082601f83011261327b57600080fd5b81356001600160401b0381111561329457613294613194565b6040516132ab601f8301601f1916602001826131aa565b8181528460208386010111156132c057600080fd5b816020850160208301376000918101602001919091529392505050565b600080600080600060a086880312156132f557600080fd5b6132fe8661306f565b945061330c6020870161306f565b935060408601356001600160401b038082111561332857600080fd5b61333489838a016131f9565b9450606088013591508082111561334a57600080fd5b61335689838a016131f9565b9350608088013591508082111561336c57600080fd5b506133798882890161326a565b9150509295509295909350565b6000806040838503121561339957600080fd5b82356001600160401b03808211156133b057600080fd5b818501915085601f8301126133c457600080fd5b813560206133d1826131d6565b6040516133de82826131aa565b83815260059390931b85018201928281019150898411156133fe57600080fd5b948201945b83861015613423576134148661306f565b82529482019490820190613403565b9650508601359250508082111561343957600080fd5b50613446858286016131f9565b9150509250929050565b600081518084526020808501945080840160005b8381101561348057815187529582019590820190600101613464565b509495945050505050565b6020815260006121e76020830184613450565b80356001600160401b038116811461308657600080fd5b600080600080600060a086880312156134cd57600080fd5b6134d68661306f565b94506134e46020870161306f565b9350604086013592506134f96060870161349e565b91506135076080870161349e565b90509295509295909350565b6000806040838503121561352657600080fd5b61352f8361306f565b91506020830135801515811461354457600080fd5b809150509250929050565b60008083601f84011261356157600080fd5b5081356001600160401b0381111561357857600080fd5b6020830191508360208260051b850101111561359357600080fd5b9250929050565b60008083601f8401126135ac57600080fd5b5081356001600160401b038111156135c357600080fd5b60208301915083602082850101111561359357600080fd5b60008060008060008060008060a0898b0312156135f757600080fd5b6136008961306f565b975061360e60208a0161306f565b965060408901356001600160401b038082111561362a57600080fd5b6136368c838d0161354f565b909850965060608b013591508082111561364f57600080fd5b61365b8c838d0161354f565b909650945060808b013591508082111561367457600080fd5b506136818b828c0161359a565b999c989b5096995094979396929594505050565b600080600080600060a086880312156136ad57600080fd5b505083359560208501359550604085013594606081013594506080013592509050565b600080604083850312156136e357600080fd5b6136ec8361306f565b91506136fa6020840161306f565b90509250929050565b60008060008060008060a0878903121561371c57600080fd5b6137258761306f565b95506137336020880161306f565b9450604087013593506060870135925060808701356001600160401b0381111561375c57600080fd5b61376889828a0161359a565b979a9699509497509295939492505050565b600080600080600060a0868803121561379257600080fd5b61379b8661306f565b94506137a96020870161306f565b9350604086013592506060860135915060808601356001600160401b038111156137d257600080fd5b6133798882890161326a565b6000602082840312156137f057600080fd5b6121e78261306f565b634e487b7160e01b600052603260045260246000fd5b634e487b7160e01b600052601160045260246000fd5b6000828210156138375761383761380f565b500390565b634e487b7160e01b600052603160045260246000fd5b6000600182016138645761386461380f565b5060010190565b600181811c9082168061387f57607f821691505b60208210810361389f57634e487b7160e01b600052602260045260246000fd5b50919050565b6000602082840312156138b757600080fd5b5051919050565b6020808252602e908201527f455243313135353a2063616c6c6572206973206e6f7420746f6b656e206f776e60408201526d195c881bdc88185c1c1c9bdd995960921b606082015260800190565b6000821982111561391f5761391f61380f565b500190565b60208082526025908201527f455243313135353a207472616e7366657220746f20746865207a65726f206164604082015264647265737360d81b606082015260800190565b6020808252602a908201527f455243313135353a20696e73756666696369656e742062616c616e636520666f60408201526939103a3930b739b332b960b11b606082015260800190565b6040815260006139c66040830185613450565b82810360208401526139d88185613450565b95945050505050565b6001600160a01b0386811682528516602082015260a060408201819052600090613a0d90830186613450565b8281036060840152613a1f8186613450565b90508281036080840152613a338185613101565b98975050505050505050565b600060208284031215613a5157600080fd5b81516121e7816130b5565b600060033d1115613a755760046000803e5060005160e01c5b90565b600060443d1015613a865790565b6040516003193d81016004833e81513d6001600160401b038160248401118184111715613ab557505050505090565b8285019150815181811115613acd5750505050505090565b843d8701016020828501011115613ae75750505050505090565b613af6602082860101876131aa565b509095945050505050565b60208082526028908201527f455243313135353a204552433131353552656365697665722072656a656374656040820152676420746f6b656e7360c01b606082015260800190565b6001600160a01b03868116825285166020820152604081018490526060810183905260a060808201819052600090613b8390830184613101565b97965050505050505056fea2646970667358221220f4cc769d14a3b8e064fe6660822cde84012fb55842b6f48a06da20d51770c2a264736f6c634300080f0033",
  "linkReferences": {},
  "deployedLinkReferences": {}
}