{
  "_format": "hh-sol-artifact-1",
  "contractName": "SampleERC5006",
  "sourceName": "contracts/SampleERC5006.sol",
  "abi": [
    {
      "inputs": [],
      "stateMutability": "nonpayable",
      "type": "constructor"
    },
    {
      "anonymous": false,
      "inputs": [
        {
          "indexed": true,
          "internalType": "address",
          "name": "account",
          "type": "address"
        },
        {
          "indexed": true,
          "internalType": "address",
          "name": "operator",
          "type": "address"
        },
        {
          "indexed": false,
          "internalType": "bool",
          "name": "approved",
          "type": "bool"
        }
      ],
      "name": "ApprovalForAll",
      "type": "event"
    },
    {
      "anonymous": false,
      "inputs": [
        {
          "indexed": false,
          "internalType": "uint256",
          "name": "recordId",
          "type": "uint256"
        },
        {
          "indexed": false,
          "internalType": "uint256",
          "name": "tokenId",
          "type": "uint256"
        },
        {
          "indexed": false,
          "internalType": "uint64",
          "name": "amount",
          "type": "uint64"
        },
        {
          "indexed": false,
          "internalType": "address",
          "name": "owner",
          "type": "address"
        },
        {
          "indexed": false,
          "internalType": "address",
          "name": "user",
          "type": "address"
        },
        {
          "indexed": false,
          "internalType": "uint64",
          "name": "expiry",
          "type": "uint64"
        }
      ],
      "name": "CreateUserRecord",
      "type": "event"
    },
    {
      "anonymous": false,
      "inputs": [
        {
          "indexed": false,
          "internalType": "uint256",
          "name": "recordId",
          "type": "uint256"
        }
      ],
      "name": "DeleteUserRecord",
      "type": "event"
    },
    {
      "anonymous": false,
      "inputs": [
        {
          "indexed": true,
          "internalType": "address",
          "name": "previousOwner",
          "type": "address"
        },
        {
          "indexed": true,
          "internalType": "address",
          "name": "newOwner",
          "type": "address"
        }
      ],
      "name": "OwnershipTransferred",
      "type": "event"
    },
    {
      "anonymous": false,
      "inputs": [
        {
          "indexed": true,
          "internalType": "address",
          "name": "operator",
          "type": "address"
        },
        {
          "indexed": true,
          "internalType": "address",
          "name": "from",
          "type": "address"
        },
        {
          "indexed": true,
          "internalType": "address",
          "name": "to",
          "type": "address"
        },
        {
          "indexed": false,
          "internalType": "uint256[]",
          "name": "ids",
          "type": "uint256[]"
        },
        {
          "indexed": false,
          "internalType": "uint256[]",
          "name": "values",
          "type": "uint256[]"
        }
      ],
      "name": "TransferBatch",
      "type": "event"
    },
    {
      "anonymous": false,
      "inputs": [
        {
          "indexed": true,
          "internalType": "address",
          "name": "operator",
          "type": "address"
        },
        {
          "indexed": true,
          "internalType": "address",
          "name": "from",
          "type": "address"
        },
        {
          "indexed": true,
          "internalType": "address",
          "name": "to",
          "type": "address"
        },
        {
          "indexed": false,
          "internalType": "uint256",
          "name": "id",
          "type": "uint256"
        },
        {
          "indexed": false,
          "internalType": "uint256",
          "name": "value",
          "type": "uint256"
        }
      ],
      "name": "TransferSingle",
      "type": "event"
    },
    {
      "anonymous": false,
      "inputs": [
        {
          "indexed": false,
          "internalType": "string",
          "name": "value",
          "type": "string"
        },
        {
          "indexed": true,
          "internalType": "uint256",
          "name": "id",
          "type": "uint256"
        }
      ],
      "name": "URI",
      "type": "event"
    },
    {
      "inputs": [],
      "name": "_recId",
      "outputs": [
        {
          "internalType": "uint256",
          "name": "",
          "type": "uint256"
        }
      ],
      "stateMutability": "view",
      "type": "function"
    },
    {
      "inputs": [],
      "name": "_tokenId",
      "outputs": [
        {
          "internalType": "uint256",
          "name": "",
          "type": "uint256"
        }
      ],
      "stateMutability": "view",
      "type": "function"
    },
    {
      "inputs": [
        {
          "internalType": "uint256",
          "name": "",
          "type": "uint256"
        }
      ],
      "name": "_tokenRecords",
      "outputs": [
        {
          "internalType": "uint256",
          "name": "tokenId",
          "type": "uint256"
        },
        {
          "internalType": "uint256",
          "name": "price",
          "type": "uint256"
        },
        {
          "internalType": "uint256",
          "name": "copies",
          "type": "uint256"
        },
        {
          "internalType": "uint256",
          "name": "startTime",
          "type": "uint256"
        },
        {
          "internalType": "uint256",
          "name": "endTime",
          "type": "uint256"
        },
        {
          "internalType": "address",
          "name": "lender",
          "type": "address"
        },
        {
          "internalType": "address",
          "name": "rentedTo",
          "type": "address"
        },
        {
          "internalType": "uint256",
          "name": "recordId5006",
          "type": "uint256"
        }
      ],
      "stateMutability": "view",
      "type": "function"
    },
    {
      "inputs": [
        {
          "internalType": "uint256",
          "name": "",
          "type": "uint256"
        }
      ],
      "name": "_uri",
      "outputs": [
        {
          "internalType": "string",
          "name": "",
          "type": "string"
        }
      ],
      "stateMutability": "view",
      "type": "function"
    },
    {
      "inputs": [
        {
          "internalType": "address",
          "name": "account",
          "type": "address"
        },
        {
          "internalType": "uint256",
          "name": "id",
          "type": "uint256"
        }
      ],
      "name": "balanceOf",
      "outputs": [
        {
          "internalType": "uint256",
          "name": "",
          "type": "uint256"
        }
      ],
      "stateMutability": "view",
      "type": "function"
    },
    {
      "inputs": [
        {
          "internalType": "address[]",
          "name": "accounts",
          "type": "address[]"
        },
        {
          "internalType": "uint256[]",
          "name": "ids",
          "type": "uint256[]"
        }
      ],
      "name": "balanceOfBatch",
      "outputs": [
        {
          "internalType": "uint256[]",
          "name": "",
          "type": "uint256[]"
        }
      ],
      "stateMutability": "view",
      "type": "function"
    },
    {
      "inputs": [
        {
          "internalType": "uint256",
          "name": "recId",
          "type": "uint256"
        }
      ],
      "name": "borrowToken",
      "outputs": [],
      "stateMutability": "payable",
      "type": "function"
    },
    {
      "inputs": [
        {
          "internalType": "address",
          "name": "from",
          "type": "address"
        },
        {
          "internalType": "uint256",
          "name": "id",
          "type": "uint256"
        },
        {
          "internalType": "uint256",
          "name": "copies",
          "type": "uint256"
        }
      ],
      "name": "burn",
      "outputs": [],
      "stateMutability": "nonpayable",
      "type": "function"
    },
    {
      "inputs": [
        {
          "internalType": "address",
          "name": "owner",
          "type": "address"
        },
        {
          "internalType": "address",
          "name": "user",
          "type": "address"
        },
        {
          "internalType": "uint256",
          "name": "tokenId",
          "type": "uint256"
        },
        {
          "internalType": "uint64",
          "name": "amount",
          "type": "uint64"
        },
        {
          "internalType": "uint64",
          "name": "expiry",
          "type": "uint64"
        }
      ],
      "name": "createUserRecord",
      "outputs": [
        {
          "internalType": "uint256",
          "name": "",
          "type": "uint256"
        }
      ],
      "stateMutability": "nonpayable",
      "type": "function"
    },
    {
      "inputs": [
        {
          "internalType": "uint256",
          "name": "recordId",
          "type": "uint256"
        }
      ],
      "name": "deleteUserRecord",
      "outputs": [],
      "stateMutability": "nonpayable",
      "type": "function"
    },
    {
      "inputs": [
        {
          "internalType": "address",
          "name": "account",
          "type": "address"
        },
        {
          "internalType": "uint256",
          "name": "tokenId",
          "type": "uint256"
        }
      ],
      "name": "frozenBalanceOf",
      "outputs": [
        {
          "internalType": "uint256",
          "name": "",
          "type": "uint256"
        }
      ],
      "stateMutability": "view",
      "type": "function"
    },
    {
      "inputs": [],
      "name": "getBorrowedRecordId",
      "outputs": [
        {
          "internalType": "uint256[]",
          "name": "",
          "type": "uint256[]"
        }
      ],
      "stateMutability": "view",
      "type": "function"
    },
    {
      "inputs": [],
      "name": "getLenderAvailableTokens",
      "outputs": [
        {
          "internalType": "uint256[]",
          "name": "",
          "type": "uint256[]"
        }
      ],
      "stateMutability": "view",
      "type": "function"
    },
    {
      "inputs": [
        {
          "internalType": "uint256",
          "name": "token_id",
          "type": "uint256"
        }
      ],
      "name": "getLenderFrozenBalance",
      "outputs": [
        {
          "internalType": "uint256",
          "name": "",
          "type": "uint256"
        }
      ],
      "stateMutability": "view",
      "type": "function"
    },
    {
      "inputs": [
        {
          "internalType": "uint256",
          "name": "token_id",
          "type": "uint256"
        }
      ],
      "name": "getMarkedRecordIds",
      "outputs": [
        {
          "internalType": "uint256[]",
          "name": "",
          "type": "uint256[]"
        }
      ],
      "stateMutability": "view",
      "type": "function"
    },
    {
      "inputs": [
        {
          "internalType": "uint256",
          "name": "token_id",
          "type": "uint256"
        }
      ],
      "name": "getOnRentRecordIds",
      "outputs": [
        {
          "internalType": "uint256[]",
          "name": "",
          "type": "uint256[]"
        }
      ],
      "stateMutability": "view",
      "type": "function"
    },
    {
      "inputs": [
        {
          "internalType": "address",
          "name": "account",
          "type": "address"
        },
        {
          "internalType": "address",
          "name": "operator",
          "type": "address"
        }
      ],
      "name": "isApprovedForAll",
      "outputs": [
        {
          "internalType": "bool",
          "name": "",
          "type": "bool"
        }
      ],
      "stateMutability": "view",
      "type": "function"
    },
    {
      "inputs": [
        {
          "internalType": "address",
          "name": "owner",
          "type": "address"
        }
      ],
      "name": "isOwnerOrApproved",
      "outputs": [
        {
          "internalType": "bool",
          "name": "",
          "type": "bool"
        }
      ],
      "stateMutability": "view",
      "type": "function"
    },
    {
      "inputs": [
        {
          "internalType": "uint256",
          "name": "token_id",
          "type": "uint256"
        },
        {
          "internalType": "uint256",
          "name": "copies",
          "type": "uint256"
        },
        {
          "internalType": "uint256",
          "name": "price",
          "type": "uint256"
        },
        {
          "internalType": "uint256",
          "name": "startTime",
          "type": "uint256"
        },
        {
          "internalType": "uint256",
          "name": "endTime",
          "type": "uint256"
        }
      ],
      "name": "markForRent",
      "outputs": [],
      "stateMutability": "nonpayable",
      "type": "function"
    },
    {
      "inputs": [
        {
          "internalType": "string",
          "name": "uri",
          "type": "string"
        },
        {
          "internalType": "uint256",
          "name": "copies",
          "type": "uint256"
        }
      ],
      "name": "mintToken",
      "outputs": [],
      "stateMutability": "nonpayable",
      "type": "function"
    },
    {
      "inputs": [
        {
          "internalType": "address",
          "name": "operator",
          "type": "address"
        },
        {
          "internalType": "address",
          "name": "from",
          "type": "address"
        },
        {
          "internalType": "uint256[]",
          "name": "ids",
          "type": "uint256[]"
        },
        {
          "internalType": "uint256[]",
          "name": "values",
          "type": "uint256[]"
        },
        {
          "internalType": "bytes",
          "name": "data",
          "type": "bytes"
        }
      ],
      "name": "onERC1155BatchReceived",
      "outputs": [
        {
          "internalType": "bytes4",
          "name": "",
          "type": "bytes4"
        }
      ],
      "stateMutability": "pure",
      "type": "function"
    },
    {
      "inputs": [
        {
          "internalType": "address",
          "name": "operator",
          "type": "address"
        },
        {
          "internalType": "address",
          "name": "from",
          "type": "address"
        },
        {
          "internalType": "uint256",
          "name": "tokenId",
          "type": "uint256"
        },
        {
          "internalType": "uint256",
          "name": "value",
          "type": "uint256"
        },
        {
          "internalType": "bytes",
          "name": "data",
          "type": "bytes"
        }
      ],
      "name": "onERC1155Received",
      "outputs": [
        {
          "internalType": "bytes4",
          "name": "",
          "type": "bytes4"
        }
      ],
      "stateMutability": "pure",
      "type": "function"
    },
    {
      "inputs": [],
      "name": "owner",
      "outputs": [
        {
          "internalType": "address",
          "name": "",
          "type": "address"
        }
      ],
      "stateMutability": "view",
      "type": "function"
    },
    {
      "inputs": [
        {
          "internalType": "uint256",
          "name": "recId",
          "type": "uint256"
        }
      ],
      "name": "removeFromRent",
      "outputs": [],
      "stateMutability": "nonpayable",
      "type": "function"
    },
    {
      "inputs": [],
      "name": "renounceOwnership",
      "outputs": [],
      "stateMutability": "nonpayable",
      "type": "function"
    },
    {
      "inputs": [],
      "name": "returnAmount",
      "outputs": [],
      "stateMutability": "nonpayable",
      "type": "function"
    },
    {
      "inputs": [
        {
          "internalType": "address",
          "name": "from",
          "type": "address"
        },
        {
          "internalType": "address",
          "name": "to",
          "type": "address"
        },
        {
          "internalType": "uint256[]",
          "name": "ids",
          "type": "uint256[]"
        },
        {
          "internalType": "uint256[]",
          "name": "amounts",
          "type": "uint256[]"
        },
        {
          "internalType": "bytes",
          "name": "data",
          "type": "bytes"
        }
      ],
      "name": "safeBatchTransferFrom",
      "outputs": [],
      "stateMutability": "nonpayable",
      "type": "function"
    },
    {
      "inputs": [
        {
          "internalType": "address",
          "name": "from",
          "type": "address"
        },
        {
          "internalType": "address",
          "name": "to",
          "type": "address"
        },
        {
          "internalType": "uint256",
          "name": "id",
          "type": "uint256"
        },
        {
          "internalType": "uint256",
          "name": "amount",
          "type": "uint256"
        },
        {
          "internalType": "bytes",
          "name": "data",
          "type": "bytes"
        }
      ],
      "name": "safeTransferFrom",
      "outputs": [],
      "stateMutability": "nonpayable",
      "type": "function"
    },
    {
      "inputs": [
        {
          "internalType": "address",
          "name": "operator",
          "type": "address"
        },
        {
          "internalType": "bool",
          "name": "approved",
          "type": "bool"
        }
      ],
      "name": "setApprovalForAll",
      "outputs": [],
      "stateMutability": "nonpayable",
      "type": "function"
    },
    {
      "inputs": [
        {
          "internalType": "bytes4",
          "name": "interfaceId",
          "type": "bytes4"
        }
      ],
      "name": "supportsInterface",
      "outputs": [
        {
          "internalType": "bool",
          "name": "",
          "type": "bool"
        }
      ],
      "stateMutability": "view",
      "type": "function"
    },
    {
      "inputs": [
        {
          "internalType": "address",
          "name": "newOwner",
          "type": "address"
        }
      ],
      "name": "transferOwnership",
      "outputs": [],
      "stateMutability": "nonpayable",
      "type": "function"
    },
    {
      "inputs": [
        {
          "internalType": "uint256",
          "name": "",
          "type": "uint256"
        }
      ],
      "name": "uri",
      "outputs": [
        {
          "internalType": "string",
          "name": "",
          "type": "string"
        }
      ],
      "stateMutability": "view",
      "type": "function"
    },
    {
      "inputs": [
        {
          "internalType": "address",
          "name": "account",
          "type": "address"
        },
        {
          "internalType": "uint256",
          "name": "tokenId",
          "type": "uint256"
        }
      ],
      "name": "usableBalanceOf",
      "outputs": [
        {
          "internalType": "uint256",
          "name": "amount",
          "type": "uint256"
        }
      ],
      "stateMutability": "view",
      "type": "function"
    },
    {
      "inputs": [
        {
          "internalType": "uint256",
          "name": "recordId",
          "type": "uint256"
        }
      ],
      "name": "userRecordOf",
      "outputs": [
        {
          "components": [
            {
              "internalType": "uint256",
              "name": "tokenId",
              "type": "uint256"
            },
            {
              "internalType": "address",
              "name": "owner",
              "type": "address"
            },
            {
              "internalType": "uint64",
              "name": "amount",
              "type": "uint64"
            },
            {
              "internalType": "address",
              "name": "user",
              "type": "address"
            },
            {
              "internalType": "uint64",
              "name": "expiry",
              "type": "uint64"
            }
          ],
          "internalType": "struct IERC5006.UserRecord",
          "name": "",
          "type": "tuple"
        }
      ],
      "stateMutability": "view",
      "type": "function"
    },
    {
      "inputs": [],
      "name": "validateLendedTokens",
      "outputs": [
        {
          "internalType": "uint256",
          "name": "",
          "type": "uint256"
        }
      ],
      "stateMutability": "nonpayable",
      "type": "function"
    }
  ],
  "bytecode": "0x60806040523480156200001157600080fd5b50604080516020810190915260008152600a816200002f8162000057565b50600755506200003f3362000069565b600980546001600160a01b031916301790556200022c565b600262000065828262000160565b5050565b600880546001600160a01b038381166001600160a01b0319831681179093556040519116919082907f8be0079c531659141344cd1fd0a4f28419497f9722a3daafe3b4186f6b6457e090600090a35050565b634e487b7160e01b600052604160045260246000fd5b600181811c90821680620000e657607f821691505b6020821081036200010757634e487b7160e01b600052602260045260246000fd5b50919050565b601f8211156200015b57600081815260208120601f850160051c81016020861015620001365750805b601f850160051c820191505b81811015620001575782815560010162000142565b5050505b505050565b81516001600160401b038111156200017c576200017c620000bb565b62000194816200018d8454620000d1565b846200010d565b602080601f831160018114620001cc5760008415620001b35750858301515b600019600386901b1c1916600185901b17855562000157565b600085815260208120601f198616915b82811015620001fd57888601518255948401946001909101908401620001dc565b50858210156200021c5787850151600019600388901b60f8161c191681555b5050505050600190811b01905550565b613fa8806200023c6000396000f3fe6080604052600436106102035760003560e01c80638da5cb5b11610118578063e985e9c5116100a0578063f242432a1161006f578063f242432a14610747578063f2fde38b14610767578063f35eeaef14610787578063f5298aca1461079c578063f5b3f424146107bc57600080fd5b8063e985e9c514610636578063ed86eef31461067f578063f0af245a1461069f578063f23a6e611461071a57600080fd5b8063c046372c116100e7578063c046372c146105a1578063cfd44f35146105c1578063d05d2802146105d6578063def2cc56146105f6578063e6cfb63c1461061657600080fd5b80638da5cb5b146104f1578063a22cb46514610519578063b6487cbc14610539578063bc197c811461055957600080fd5b80634a2e88f71161019b5780635c9efd001161016a5780635c9efd0014610471578063715018a6146104865780637634f8731461049b578063883d1d5f146104b15780638abcba64146104d157600080fd5b80634a2e88f7146103185780634e1273f4146103ca5780634fcad101146103f7578063535c0ce31461042f57600080fd5b80630e89341c116101d75780630e89341c1461029557806324822514146102c25780632eb2c2d6146102d857806337516f7c146102f857600080fd5b8062fdd58e1461020857806301ffc9a71461023b57806308a746fa1461026b578063092f577614610280575b600080fd5b34801561021457600080fd5b50610228610223366004613308565b6107dc565b6040519081526020015b60405180910390f35b34801561024757600080fd5b5061025b610256366004613348565b610875565b6040519015158152602001610232565b34801561027757600080fd5b506102286108a9565b61029361028e366004613365565b610cbc565b005b3480156102a157600080fd5b506102b56102b0366004613365565b61102b565b60405161023291906133cb565b3480156102ce57600080fd5b50610228600a5481565b3480156102e457600080fd5b506102936102f3366004613531565b6110bf565b34801561030457600080fd5b50610293610313366004613365565b61110b565b34801561032457600080fd5b50610383610333366004613365565b600d6020526000908152604090208054600182015460028301546003840154600485015460058601546006870154600790970154959694959394929391926001600160a01b039182169291169088565b60408051988952602089019790975295870194909452606086019290925260808501526001600160a01b0390811660a08501521660c083015260e082015261010001610232565b3480156103d657600080fd5b506103ea6103e53660046135da565b61126b565b60405161023291906136df565b34801561040357600080fd5b50610228610412366004613365565b336000908152601060209081526040808320938352929052205490565b34801561043b57600080fd5b5061022861044a366004613308565b60009081526003602090815260408083206001600160a01b03949094168352929052205490565b34801561047d57600080fd5b506103ea611394565b34801561049257600080fd5b506102936113b4565b3480156104a757600080fd5b50610228600b5481565b3480156104bd57600080fd5b506102286104cc366004613709565b6113c8565b3480156104dd57600080fd5b506102936104ec366004613365565b61171e565b3480156104fd57600080fd5b506008546040516001600160a01b039091168152602001610232565b34801561052557600080fd5b50610293610534366004613767565b61194b565b34801561054557600080fd5b506103ea610554366004613365565b61195a565b34801561056557600080fd5b5061058861057436600461382f565b63bc197c8160e01b98975050505050505050565b6040516001600160e01b03199091168152602001610232565b3480156105ad57600080fd5b506102936105bc3660046138e9565b6119c4565b3480156105cd57600080fd5b506103ea611a16565b3480156105e257600080fd5b506103ea6105f1366004613365565b611a77565b34801561060257600080fd5b50610228610611366004613308565b611ae0565b34801561062257600080fd5b50610293610631366004613941565b611be1565b34801561064257600080fd5b5061025b61065136600461397c565b6001600160a01b03918216600090815260016020908152604080832093909416825291909152205460ff1690565b34801561068b57600080fd5b506102b561069a366004613365565b612085565b3480156106ab57600080fd5b506106bf6106ba366004613365565b61211f565b60408051825181526020808401516001600160a01b0390811691830191909152838301516001600160401b0390811693830193909352606080850151909116908201526080928301519091169181019190915260a001610232565b34801561072657600080fd5b506105886107353660046139af565b63f23a6e6160e01b9695505050505050565b34801561075357600080fd5b50610293610762366004613a26565b6121b5565b34801561077357600080fd5b50610293610782366004613a8a565b6121fa565b34801561079357600080fd5b50610293612270565b3480156107a857600080fd5b506102936107b7366004613aa5565b61229c565b3480156107c857600080fd5b5061025b6107d7366004613a8a565b6122ac565b60006001600160a01b03831661084c5760405162461bcd60e51b815260206004820152602a60248201527f455243313135353a2061646472657373207a65726f206973206e6f742061207660448201526930b634b21037bbb732b960b11b60648201526084015b60405180910390fd5b506000818152602081815260408083206001600160a01b03861684529091529020545b92915050565b60006001600160e01b0319821663309b65b360e21b148061089a575061089a82612317565b8061086f575061086f82612367565b33600090815260116020526040812081906108c39061238c565b90506000805b8251811015610cb55760005b336000908152600f6020526040812085519091908690859081106108fb576108fb613ad8565b6020026020010151815260200190815260200160002080549050811015610ca257336000908152600f60205260408120855161099491600d9184919082908a908990811061094b5761094b613ad8565b60200260200101518152602001908152602001600020858154811061097257610972613ad8565b906000526020600020015481526020019081526020016000206007015461211f565b60208101519091506001600160a01b0316331480156109bf57504281608001516001600160401b0316105b15610c8e57336000908152600f602052604081208651610a2892908890879081106109ec576109ec613ad8565b602002602001015181526020019081526020016000208381548110610a1357610a13613ad8565b906000526020600020015482606001516123a0565b336000908152600f602052604081208651610a879290889087908110610a5057610a50613ad8565b602002602001015181526020019081526020016000208381548110610a7757610a77613ad8565b9060005260206000200154612550565b6040808201516020808401516001600160a01b03166000908152601082528381208551825290915291822080546001600160401b03909216929091610acd908490613b04565b909155505060208101518151610ae391906125a3565b336000908152600f602052604081208651909190879086908110610b0957610b09613ad8565b602002602001015181526020019081526020016000206001600f6000336001600160a01b03166001600160a01b031681526020019081526020016000206000888781518110610b5a57610b5a613ad8565b6020026020010151815260200190815260200160002080549050610b7e9190613b04565b81548110610b8e57610b8e613ad8565b9060005260206000200154600f6000336001600160a01b03166001600160a01b031681526020019081526020016000206000878681518110610bd257610bd2613ad8565b602002602001015181526020019081526020016000208381548110610bf957610bf9613ad8565b9060005260206000200181905550600f6000336001600160a01b03166001600160a01b031681526020019081526020016000206000868581518110610c4057610c40613ad8565b60200260200101518152602001908152602001600020805480610c6557610c65613b1b565b600190038181906000526020600020016000905590558380610c8690613b31565b945050610c9c565b610c99600183613b4a565b91505b506108d5565b5080610cad81613b31565b9150506108c9565b5092915050565b6000818152600d60205260409020600501546001600160a01b0316610d235760405162461bcd60e51b815260206004820152601d60248201527f53616d706c65353030363a20496e76616c6964205265636f72642049640000006044820152606401610843565b6000818152600d60205260409020600601546001600160a01b031615610da25760405162461bcd60e51b815260206004820152602e60248201527f53616d706c65353030363a205265636f726420616c7265616479206f6e20726560448201526d6e742043616e7420626f72726f7760901b6064820152608401610843565b6000818152600d60205260409020600101543414610e025760405162461bcd60e51b815260206004820152601e60248201527f53616d706c65353030363a20496e73756666696369656e7420707269636500006044820152606401610843565b6000818152600d60205260409020600501546001600160a01b03163303610e775760405162461bcd60e51b8152602060048201526024808201527f53616d706c65353030363a2043616e27742062757920796f7572206f776e207460448201526337b5b2b760e11b6064820152608401610843565b6009546000828152600d6020526040808220600581015481546002830154600493840154945163883d1d5f60e01b81526001600160a01b039384169481019490945233602485015260448401919091526001600160401b03908116606484015290921660848201529192169063883d1d5f9060a4016020604051808303816000875af1158015610f0b573d6000803e3d6000fd5b505050506040513d601f19601f82011682018060405250810190610f2f9190613b62565b33600090815260126020908152604080832080546001818101835591855283852001879055868452600d835292819020815161010081018352815481529381015492840192909252600282015490830152600381015460608301526004810154608083015260058101546001600160a01b0390811660a084015260068201541660c08301526007015460e0820152909150610fcb9083906125ef565b6000828152600d602090815260408083206006810180546001600160a01b03191633179055600781019490945560058401546001600160a01b03168352600f82528083209354835292815291812080546001810182559082529190200155565b60606002805461103a90613b7b565b80601f016020809104026020016040519081016040528092919081815260200182805461106690613b7b565b80156110b35780601f10611088576101008083540402835291602001916110b3565b820191906000526020600020905b81548152906001019060200180831161109657829003601f168201915b50505050509050919050565b6001600160a01b0385163314806110db57506110db8533610651565b6110f75760405162461bcd60e51b815260040161084390613bb5565b6111048585858585612760565b5050505050565b60008181526004602052604090206001810154611130906001600160a01b03166122ac565b61113957600080fd5b600181015481546040805160208101909152600081526111789230926001600160a01b038216929091600160a01b90046001600160401b03169061293d565b6001810154815460009081526003602090815260408083206001600160a01b038516845290915281208054600160a01b9093046001600160401b0316929091906111c3908490613b04565b90915550508054600090815260056020908152604080832060028501546001600160a01b0316845290915290206111fa9083612a67565b506000828152600460205260408082209182556001820180546001600160e01b031990811690915560029092018054909216909155517fe5e4cc148925690191c27bf527786e1ffbc70eb2e0e1efc9cafc6429b1ee777a9061125f9084815260200190565b60405180910390a15050565b606081518351146112d05760405162461bcd60e51b815260206004820152602960248201527f455243313135353a206163636f756e747320616e6420696473206c656e677468604482015268040dad2e6dac2e8c6d60bb1b6064820152608401610843565b600083516001600160401b038111156112eb576112eb6133de565b604051908082528060200260200182016040528015611314578160200160208202803683370190505b50905060005b845181101561138c5761135f85828151811061133857611338613ad8565b602002602001015185838151811061135257611352613ad8565b60200260200101516107dc565b82828151811061137157611371613ad8565b602090810291909101015261138581613b31565b905061131a565b509392505050565b3360009081526011602052604090206060906113af9061238c565b905090565b6113bc612a73565b6113c66000612acd565b565b60006113d3866122ac565b6113dc57600080fd5b6001600160a01b0385166114325760405162461bcd60e51b815260206004820152601f60248201527f757365722063616e6e6f7420626520746865207a65726f2061646472657373006044820152606401610843565b6000836001600160401b03161161148b5760405162461bcd60e51b815260206004820152601d60248201527f616d6f756e74206d7573742062652067726561746572207468616e20300000006044820152606401610843565b42826001600160401b0316116114f15760405162461bcd60e51b815260206004820152602560248201527f657870697279206d7573742061667465722074686520626c6f636b2074696d6560448201526407374616d760dc1b6064820152608401610843565b60075460008581526005602090815260408083206001600160a01b038a168452909152902061151f90612b1f565b1061156c5760405162461bcd60e51b815260206004820152601d60248201527f757365722063616e6e6f742068617665206d6f7265207265636f7264730000006044820152606401610843565b611591863086866001600160401b03166040518060200160405280600081525061293d565b60008481526003602090815260408083206001600160a01b038a168452909152812080546001600160401b03861692906115cc908490613b4a565b9091555050600680549060006115e183613b31565b90915550506040805160a0810182528581526001600160a01b0388811660208084019182526001600160401b038881168587019081528b8516606087018181528a841660808901908152600680546000908152600488528b81209a518b55975160018b0180549651918b166001600160e01b031997881617600160a01b928916830217905592516002909a01805492519a90991691909416179790931690920295909517909355925488825260058452848220928252919092529190206116a791612b29565b5060065460408051918252602082018690526001600160401b03858116838301526001600160a01b03898116606085015288166080840152841660a0830152517faa05e03d03c60cd1d2749f96e50df9c0f2910357e2213b7fbb8c838c9e207d079181900360c00190a15060065495945050505050565b6000818152600d60205260409020600501546001600160a01b03166117855760405162461bcd60e51b815260206004820152601d60248201527f53616d706c65353030363a20496e76616c6964205265636f72642049640000006044820152606401610843565b6000818152600d60205260409020600501546001600160a01b031633146117ff5760405162461bcd60e51b815260206004820152602860248201527f53616d706c65353030363a204e6f7420616e2076616c6964206f776e6572206f60448201526719881c9958dbdc9960c21b6064820152608401610843565b6000818152600d60205260409020600601546001600160a01b03161561187f5760405162461bcd60e51b815260206004820152602f60248201527f53616d706c65353030363a20546f6b656e206973206f6e2072656e742043616e60448201526e1d081c995b5bdd99481c9958dbdc99608a1b6064820152608401610843565b6000818152600d602090815260409182902082516101008101845281548152600182015492810192909252600281015492820192909252600382015460608201526004820154608082015260058201546001600160a01b0390811660a083015260068301541660c082015260079091015460e08201526119009082906125ef565b6000818152600d602090815260408083206002810154338552601084528285209154855292528220805491929091611939908490613b04565b90915550611948905081612550565b50565b611956338383612b35565b5050565b336000908152600e602090815260408083208484528252918290208054835181840281018401909452808452606093928301828280156110b357602002820191906000526020600020905b8154815260200190600101908083116119a55750505050509050919050565b600a546000908152600c602052604090206119df8382613c49565b506119fd33600a548360405180602001604052806000815250612c15565b600a8054906000611a0d83613b31565b91905055505050565b33600090815260126020908152604091829020805483518184028101840190945280845260609392830182828015611a6d57602002820191906000526020600020905b815481526020019060010190808311611a59575b5050505050905090565b336000908152600f602090815260408083208484528252918290208054835181840281018401909452808452606093928301828280156110b357602002820191906000526020600020908154815260200190600101908083116119a55750505050509050919050565b60008181526005602090815260408083206001600160a01b038616845290915281208190611b0d9061238c565b905060005b8151811015611bd95760046000838381518110611b3157611b31613ad8565b6020026020010151815260200190815260200160002060020160149054906101000a90046001600160401b03166001600160401b03164211611bc75760046000838381518110611b8357611b83613ad8565b6020026020010151815260200190815260200160002060010160149054906101000a90046001600160401b03166001600160401b031683611bc49190613b4a565b92505b80611bd181613b31565b915050611b12565b505092915050565b3385856000611bf084846107dc565b6001600160a01b03851660009081526010602090815260408083208784529091529020549091508281831015611c2f57611c2a8383613b04565b611c39565b611c398284613b04565b1015611ca05760405162461bcd60e51b815260206004820152603060248201527f53616d706c65353030363a204c656e64657220646f6e74206861766520656e6f60448201526f75676820746f6b656e20636f7069657360801b6064820152608401610843565b60008811611d165760405162461bcd60e51b815260206004820152603760248201527f53616d706c65353030363a2052656e74696e672070726963652073686f756c6460448201527f20626520626520676561746572207468616e207a65726f0000000000000000006064820152608401610843565b600087118015611d265750600086115b611d7e5760405162461bcd60e51b8152602060048201526024808201527f53616d706c65353030363a2054696d657374616d702063616e6e6f74206265206044820152637a65726f60e01b6064820152608401610843565b42861015611df45760405162461bcd60e51b815260206004820152603860248201527f53616d706c65353030363a20456e642074696d652073686f756c64206265206760448201527f726561746572207468616e2063757272656e742074696d6500000000000000006064820152608401610843565b42871015611e6a5760405162461bcd60e51b815260206004820152603a60248201527f53616d706c65353030363a2053746172742074696d652073686f756c6420626560448201527f2067726561746572207468616e2063757272656e742074696d650000000000006064820152608401610843565b60008911611ec45760405162461bcd60e51b815260206004820152602160248201527f53616d706c65353030363a20436f706965732063616e6e6f74206265207a65726044820152606f60f81b6064820152608401610843565b6040518061010001604052808b81526020018981526020018a8152602001888152602001878152602001336001600160a01b0316815260200160006001600160a01b031681526020016000815250600d6000600b548152602001908152602001600020600082015181600001556020820151816001015560408201518160020155606082015181600301556080820151816004015560a08201518160050160006101000a8154816001600160a01b0302191690836001600160a01b0316021790555060c08201518160060160006101000a8154816001600160a01b0302191690836001600160a01b0316021790555060e08201518160070155905050600e6000336001600160a01b03166001600160a01b0316815260200190815260200160002060008b8152602001908152602001600020600b549080600181540180825580915050600190039060005260206000200160009091909190915055612029338b612d29565b3360009081526010602090815260408083208d8452909152812080548b9290612053908490613b4a565b90915550612064905030600161194b565b600b805490600061207483613b31565b919050555050505050505050505050565b600c602052600090815260409020805461209e90613b7b565b80601f01602080910402602001604051908101604052809291908181526020018280546120ca90613b7b565b80156121175780601f106120ec57610100808354040283529160200191612117565b820191906000526020600020905b8154815290600101906020018083116120fa57829003601f168201915b505050505081565b6040805160a08101825260008082526020820181905291810182905260608101829052608081019190915250600090815260046020908152604091829020825160a0810184528154815260018201546001600160a01b03808216948301949094526001600160401b03600160a01b9182900481169583019590955260029092015492831660608201529104909116608082015290565b6001600160a01b0385163314806121d157506121d18533610651565b6121ed5760405162461bcd60e51b815260040161084390613bb5565b611104858585858561293d565b612202612a73565b6001600160a01b0381166122675760405162461bcd60e51b815260206004820152602660248201527f4f776e61626c653a206e6577206f776e657220697320746865207a65726f206160448201526564647265737360d01b6064820152608401610843565b61194881612acd565b60405133904780156108fc02916000818181858888f19350505050158015611948573d6000803e3d6000fd5b6122a7838383612d73565b505050565b60006001600160a01b0382163314806122ca57506122ca8233610651565b61230f5760405162461bcd60e51b81526020600482015260166024820152751bdb9b1e481bdddb995c881bdc88185c1c1c9bdd995960521b6044820152606401610843565b506001919050565b60006001600160e01b03198216636cdb3d1360e11b148061234857506001600160e01b031982166303a24d0760e21b145b8061086f57506301ffc9a760e01b6001600160e01b031983161461086f565b60006001600160e01b03198216630271189760e51b148061086f575061086f82612317565b6060600061239983612eef565b9392505050565b60005b6001600160a01b0382166000908152601260205260409020548110156122a7576001600160a01b03821660009081526012602052604090208054849190839081106123f0576123f0613ad8565b90600052602060002001540361253e576009546000848152600d602052604090819020600701549051630dd45bdf60e21b81526001600160a01b03909216916337516f7c916124459160040190815260200190565b600060405180830381600087803b15801561245f57600080fd5b505af1158015612473573d6000803e3d6000fd5b505050506001600160a01b0382166000908152601260205260409020805461249d90600190613b04565b815481106124ad576124ad613ad8565b906000526020600020015460126000846001600160a01b03166001600160a01b0316815260200190815260200160002082815481106124ee576124ee613ad8565b60009182526020808320909101929092556001600160a01b038416815260129091526040902080548061252357612523613b1b565b60019003818190600052602060002001600090559055505050565b8061254881613b31565b9150506123a3565b6000908152600d60205260408120818155600181018290556002810182905560038101829055600481018290556005810180546001600160a01b0319908116909155600682018054909116905560070155565b6001600160a01b03821660009081526010602090815260408083208484529091528120549003611956576001600160a01b03821660009081526011602052604090206122a79082612a67565b60005b60a08201516001600160a01b03166000908152600e60209081526040808320855184529091529020548110156122a75760a08201516001600160a01b03166000908152600e6020908152604080832085518452909152902080548491908390811061265f5761265f613ad8565b90600052602060002001540361274e5760a0820180516001600160a01b039081166000908152600e602081815260408084208851855282528084209551909416835290815282822086518352905220546126bb90600190613b04565b815481106126cb576126cb613ad8565b600091825260208083209091015460a08501516001600160a01b03168352600e8252604080842086518552909252912080548390811061270d5761270d613ad8565b600091825260208083209091019290925560a08401516001600160a01b03168152600e82526040808220855183529092522080548061252357612523613b1b565b8061275881613b31565b9150506125f2565b81518351146127c25760405162461bcd60e51b815260206004820152602860248201527f455243313135353a2069647320616e6420616d6f756e7473206c656e677468206044820152670dad2e6dac2e8c6d60c31b6064820152608401610843565b6001600160a01b0384166127e85760405162461bcd60e51b815260040161084390613d08565b3360005b84518110156128cf57600085828151811061280957612809613ad8565b60200260200101519050600085838151811061282757612827613ad8565b602090810291909101810151600084815280835260408082206001600160a01b038e1683529093529190912054909150818110156128775760405162461bcd60e51b815260040161084390613d4d565b6000838152602081815260408083206001600160a01b038e8116855292528083208585039055908b168252812080548492906128b4908490613b4a565b92505081905550505050806128c890613b31565b90506127ec565b50846001600160a01b0316866001600160a01b0316826001600160a01b03167f4a39dc06d4c0dbc64b70af90fd698a233a518aa5d07e595d983b8c0526c8f7fb878760405161291f929190613d97565b60405180910390a4612935818787878787612f49565b505050505050565b6001600160a01b0384166129635760405162461bcd60e51b815260040161084390613d08565b33600061296f856130a4565b9050600061297c856130a4565b90506000868152602081815260408083206001600160a01b038c168452909152902054858110156129bf5760405162461bcd60e51b815260040161084390613d4d565b6000878152602081815260408083206001600160a01b038d8116855292528083208985039055908a168252812080548892906129fc908490613b4a565b909155505060408051888152602081018890526001600160a01b03808b16928c821692918816917fc3d58168c5ae7397731d063d5bbf3d657854427343f4c083240f7aacaa2d0f62910160405180910390a4612a5c848a8a8a8a8a6130ef565b505050505050505050565b600061239983836131aa565b6008546001600160a01b031633146113c65760405162461bcd60e51b815260206004820181905260248201527f4f776e61626c653a2063616c6c6572206973206e6f7420746865206f776e65726044820152606401610843565b600880546001600160a01b038381166001600160a01b0319831681179093556040519116919082907f8be0079c531659141344cd1fd0a4f28419497f9722a3daafe3b4186f6b6457e090600090a35050565b600061086f825490565b6000612399838361329d565b816001600160a01b0316836001600160a01b031603612ba85760405162461bcd60e51b815260206004820152602960248201527f455243313135353a2073657474696e6720617070726f76616c20737461747573604482015268103337b91039b2b63360b91b6064820152608401610843565b6001600160a01b03838116600081815260016020908152604080832094871680845294825291829020805460ff191686151590811790915591519182527f17307eab39ab6107e8899845ad3d59bd9653f200f220920489ca2b5937696c31910160405180910390a3505050565b6001600160a01b038416612c755760405162461bcd60e51b815260206004820152602160248201527f455243313135353a206d696e7420746f20746865207a65726f206164647265736044820152607360f81b6064820152608401610843565b336000612c81856130a4565b90506000612c8e856130a4565b90506000868152602081815260408083206001600160a01b038b16845290915281208054879290612cc0908490613b4a565b909155505060408051878152602081018790526001600160a01b03808a1692600092918716917fc3d58168c5ae7397731d063d5bbf3d657854427343f4c083240f7aacaa2d0f62910160405180910390a4612d20836000898989896130ef565b50505050505050565b6001600160a01b0382166000908152601060209081526040808320848452909152902054611956576001600160a01b03821660009081526011602052604090206122a79082612b29565b6001600160a01b038316612dd55760405162461bcd60e51b815260206004820152602360248201527f455243313135353a206275726e2066726f6d20746865207a65726f206164647260448201526265737360e81b6064820152608401610843565b336000612de1846130a4565b90506000612dee846130a4565b60408051602080820183526000918290528882528181528282206001600160a01b038b1683529052205490915084811015612e775760405162461bcd60e51b8152602060048201526024808201527f455243313135353a206275726e20616d6f756e7420657863656564732062616c604482015263616e636560e01b6064820152608401610843565b6000868152602081815260408083206001600160a01b038b81168086529184528285208a8703905582518b81529384018a90529092908816917fc3d58168c5ae7397731d063d5bbf3d657854427343f4c083240f7aacaa2d0f62910160405180910390a4604080516020810190915260009052612d20565b6060816000018054806020026020016040519081016040528092919081815260200182805480156110b357602002820191906000526020600020908154815260200190600101908083116119a55750505050509050919050565b6001600160a01b0384163b156129355760405163bc197c8160e01b81526001600160a01b0385169063bc197c8190612f8d9089908990889088908890600401613dc5565b6020604051808303816000875af1925050508015612fc8575060408051601f3d908101601f19168201909252612fc591810190613e23565b60015b61307457612fd4613e40565b806308c379a00361300d5750612fe8613e5c565b80612ff3575061300f565b8060405162461bcd60e51b815260040161084391906133cb565b505b60405162461bcd60e51b815260206004820152603460248201527f455243313135353a207472616e7366657220746f206e6f6e2d455243313135356044820152732932b1b2b4bb32b91034b6b83632b6b2b73a32b960611b6064820152608401610843565b6001600160e01b0319811663bc197c8160e01b14612d205760405162461bcd60e51b815260040161084390613ee5565b604080516001808252818301909252606091600091906020808301908036833701905050905082816000815181106130de576130de613ad8565b602090810291909101015292915050565b6001600160a01b0384163b156129355760405163f23a6e6160e01b81526001600160a01b0385169063f23a6e61906131339089908990889088908890600401613f2d565b6020604051808303816000875af192505050801561316e575060408051601f3d908101601f1916820190925261316b91810190613e23565b60015b61317a57612fd4613e40565b6001600160e01b0319811663f23a6e6160e01b14612d205760405162461bcd60e51b815260040161084390613ee5565b600081815260018301602052604081205480156132935760006131ce600183613b04565b85549091506000906131e290600190613b04565b905081811461324757600086600001828154811061320257613202613ad8565b906000526020600020015490508087600001848154811061322557613225613ad8565b6000918252602080832090910192909255918252600188019052604090208390555b855486908061325857613258613b1b565b60019003818190600052602060002001600090559055856001016000868152602001908152602001600020600090556001935050505061086f565b600091505061086f565b60008181526001830160205260408120546132e45750815460018181018455600084815260208082209093018490558454848252828601909352604090209190915561086f565b50600061086f565b80356001600160a01b038116811461330357600080fd5b919050565b6000806040838503121561331b57600080fd5b613324836132ec565b946020939093013593505050565b6001600160e01b03198116811461194857600080fd5b60006020828403121561335a57600080fd5b813561239981613332565b60006020828403121561337757600080fd5b5035919050565b6000815180845260005b818110156133a457602081850181015186830182015201613388565b818111156133b6576000602083870101525b50601f01601f19169290920160200192915050565b602081526000612399602083018461337e565b634e487b7160e01b600052604160045260246000fd5b601f8201601f191681016001600160401b0381118282101715613419576134196133de565b6040525050565b60006001600160401b03821115613439576134396133de565b5060051b60200190565b600082601f83011261345457600080fd5b8135602061346182613420565b60405161346e82826133f4565b83815260059390931b850182019282810191508684111561348e57600080fd5b8286015b848110156134a95780358352918301918301613492565b509695505050505050565b60006001600160401b038311156134cd576134cd6133de565b6040516134e4601f8501601f1916602001826133f4565b8091508381528484840111156134f957600080fd5b83836020830137600060208583010152509392505050565b600082601f83011261352257600080fd5b612399838335602085016134b4565b600080600080600060a0868803121561354957600080fd5b613552866132ec565b9450613560602087016132ec565b935060408601356001600160401b038082111561357c57600080fd5b61358889838a01613443565b9450606088013591508082111561359e57600080fd5b6135aa89838a01613443565b935060808801359150808211156135c057600080fd5b506135cd88828901613511565b9150509295509295909350565b600080604083850312156135ed57600080fd5b82356001600160401b038082111561360457600080fd5b818501915085601f83011261361857600080fd5b8135602061362582613420565b60405161363282826133f4565b83815260059390931b850182019282810191508984111561365257600080fd5b948201945b8386101561367757613668866132ec565b82529482019490820190613657565b9650508601359250508082111561368d57600080fd5b5061369a85828601613443565b9150509250929050565b600081518084526020808501945080840160005b838110156136d4578151875295820195908201906001016136b8565b509495945050505050565b60208152600061239960208301846136a4565b80356001600160401b038116811461330357600080fd5b600080600080600060a0868803121561372157600080fd5b61372a866132ec565b9450613738602087016132ec565b93506040860135925061374d606087016136f2565b915061375b608087016136f2565b90509295509295909350565b6000806040838503121561377a57600080fd5b613783836132ec565b91506020830135801515811461379857600080fd5b809150509250929050565b60008083601f8401126137b557600080fd5b5081356001600160401b038111156137cc57600080fd5b6020830191508360208260051b85010111156137e757600080fd5b9250929050565b60008083601f84011261380057600080fd5b5081356001600160401b0381111561381757600080fd5b6020830191508360208285010111156137e757600080fd5b60008060008060008060008060a0898b03121561384b57600080fd5b613854896132ec565b975061386260208a016132ec565b965060408901356001600160401b038082111561387e57600080fd5b61388a8c838d016137a3565b909850965060608b01359150808211156138a357600080fd5b6138af8c838d016137a3565b909650945060808b01359150808211156138c857600080fd5b506138d58b828c016137ee565b999c989b5096995094979396929594505050565b600080604083850312156138fc57600080fd5b82356001600160401b0381111561391257600080fd5b8301601f8101851361392357600080fd5b613932858235602084016134b4565b95602094909401359450505050565b600080600080600060a0868803121561395957600080fd5b505083359560208501359550604085013594606081013594506080013592509050565b6000806040838503121561398f57600080fd5b613998836132ec565b91506139a6602084016132ec565b90509250929050565b60008060008060008060a087890312156139c857600080fd5b6139d1876132ec565b95506139df602088016132ec565b9450604087013593506060870135925060808701356001600160401b03811115613a0857600080fd5b613a1489828a016137ee565b979a9699509497509295939492505050565b600080600080600060a08688031215613a3e57600080fd5b613a47866132ec565b9450613a55602087016132ec565b9350604086013592506060860135915060808601356001600160401b03811115613a7e57600080fd5b6135cd88828901613511565b600060208284031215613a9c57600080fd5b612399826132ec565b600080600060608486031215613aba57600080fd5b613ac3846132ec565b95602085013595506040909401359392505050565b634e487b7160e01b600052603260045260246000fd5b634e487b7160e01b600052601160045260246000fd5b600082821015613b1657613b16613aee565b500390565b634e487b7160e01b600052603160045260246000fd5b600060018201613b4357613b43613aee565b5060010190565b60008219821115613b5d57613b5d613aee565b500190565b600060208284031215613b7457600080fd5b5051919050565b600181811c90821680613b8f57607f821691505b602082108103613baf57634e487b7160e01b600052602260045260246000fd5b50919050565b6020808252602e908201527f455243313135353a2063616c6c6572206973206e6f7420746f6b656e206f776e60408201526d195c881bdc88185c1c1c9bdd995960921b606082015260800190565b601f8211156122a757600081815260208120601f850160051c81016020861015613c2a5750805b601f850160051c820191505b8181101561293557828155600101613c36565b81516001600160401b03811115613c6257613c626133de565b613c7681613c708454613b7b565b84613c03565b602080601f831160018114613cab5760008415613c935750858301515b600019600386901b1c1916600185901b178555612935565b600085815260208120601f198616915b82811015613cda57888601518255948401946001909101908401613cbb565b5085821015613cf85787850151600019600388901b60f8161c191681555b5050505050600190811b01905550565b60208082526025908201527f455243313135353a207472616e7366657220746f20746865207a65726f206164604082015264647265737360d81b606082015260800190565b6020808252602a908201527f455243313135353a20696e73756666696369656e742062616c616e636520666f60408201526939103a3930b739b332b960b11b606082015260800190565b604081526000613daa60408301856136a4565b8281036020840152613dbc81856136a4565b95945050505050565b6001600160a01b0386811682528516602082015260a060408201819052600090613df1908301866136a4565b8281036060840152613e0381866136a4565b90508281036080840152613e17818561337e565b98975050505050505050565b600060208284031215613e3557600080fd5b815161239981613332565b600060033d1115613e595760046000803e5060005160e01c5b90565b600060443d1015613e6a5790565b6040516003193d81016004833e81513d6001600160401b038160248401118184111715613e9957505050505090565b8285019150815181811115613eb15750505050505090565b843d8701016020828501011115613ecb5750505050505090565b613eda602082860101876133f4565b509095945050505050565b60208082526028908201527f455243313135353a204552433131353552656365697665722072656a656374656040820152676420746f6b656e7360c01b606082015260800190565b6001600160a01b03868116825285166020820152604081018490526060810183905260a060808201819052600090613f679083018461337e565b97965050505050505056fea2646970667358221220a0c8237ef53cc395cea894aff29704c4bfb03f78e82de3fd324a332a2d150d0d64736f6c634300080f0033",
  "linkReferences": {},
  "deployedLinkReferences": {}
}