{
  "_format": "hh-sol-artifact-1",
  "contractName": "SampleERC5006",
  "sourceName": "contracts/SampleERC5006.sol",
  "abi": [
    {
      "inputs": [],
      "stateMutability": "nonpayable",
      "type": "constructor"
    },
    {
      "anonymous": false,
      "inputs": [
        {
          "indexed": true,
          "internalType": "address",
          "name": "account",
          "type": "address"
        },
        {
          "indexed": true,
          "internalType": "address",
          "name": "operator",
          "type": "address"
        },
        {
          "indexed": false,
          "internalType": "bool",
          "name": "approved",
          "type": "bool"
        }
      ],
      "name": "ApprovalForAll",
      "type": "event"
    },
    {
      "anonymous": false,
      "inputs": [
        {
          "indexed": false,
          "internalType": "uint256",
          "name": "recordId",
          "type": "uint256"
        },
        {
          "indexed": false,
          "internalType": "uint256",
          "name": "tokenId",
          "type": "uint256"
        },
        {
          "indexed": false,
          "internalType": "uint64",
          "name": "amount",
          "type": "uint64"
        },
        {
          "indexed": false,
          "internalType": "address",
          "name": "owner",
          "type": "address"
        },
        {
          "indexed": false,
          "internalType": "address",
          "name": "user",
          "type": "address"
        },
        {
          "indexed": false,
          "internalType": "uint64",
          "name": "expiry",
          "type": "uint64"
        }
      ],
      "name": "CreateUserRecord",
      "type": "event"
    },
    {
      "anonymous": false,
      "inputs": [
        {
          "indexed": false,
          "internalType": "uint256",
          "name": "recordId",
          "type": "uint256"
        }
      ],
      "name": "DeleteUserRecord",
      "type": "event"
    },
    {
      "anonymous": false,
      "inputs": [
        {
          "indexed": true,
          "internalType": "address",
          "name": "previousOwner",
          "type": "address"
        },
        {
          "indexed": true,
          "internalType": "address",
          "name": "newOwner",
          "type": "address"
        }
      ],
      "name": "OwnershipTransferred",
      "type": "event"
    },
    {
      "anonymous": false,
      "inputs": [
        {
          "indexed": true,
          "internalType": "address",
          "name": "operator",
          "type": "address"
        },
        {
          "indexed": true,
          "internalType": "address",
          "name": "from",
          "type": "address"
        },
        {
          "indexed": true,
          "internalType": "address",
          "name": "to",
          "type": "address"
        },
        {
          "indexed": false,
          "internalType": "uint256[]",
          "name": "ids",
          "type": "uint256[]"
        },
        {
          "indexed": false,
          "internalType": "uint256[]",
          "name": "values",
          "type": "uint256[]"
        }
      ],
      "name": "TransferBatch",
      "type": "event"
    },
    {
      "anonymous": false,
      "inputs": [
        {
          "indexed": true,
          "internalType": "address",
          "name": "operator",
          "type": "address"
        },
        {
          "indexed": true,
          "internalType": "address",
          "name": "from",
          "type": "address"
        },
        {
          "indexed": true,
          "internalType": "address",
          "name": "to",
          "type": "address"
        },
        {
          "indexed": false,
          "internalType": "uint256",
          "name": "id",
          "type": "uint256"
        },
        {
          "indexed": false,
          "internalType": "uint256",
          "name": "value",
          "type": "uint256"
        }
      ],
      "name": "TransferSingle",
      "type": "event"
    },
    {
      "anonymous": false,
      "inputs": [
        {
          "indexed": false,
          "internalType": "string",
          "name": "value",
          "type": "string"
        },
        {
          "indexed": true,
          "internalType": "uint256",
          "name": "id",
          "type": "uint256"
        }
      ],
      "name": "URI",
      "type": "event"
    },
    {
      "inputs": [],
      "name": "_recId",
      "outputs": [
        {
          "internalType": "uint256",
          "name": "",
          "type": "uint256"
        }
      ],
      "stateMutability": "view",
      "type": "function"
    },
    {
      "inputs": [],
      "name": "_tokenId",
      "outputs": [
        {
          "internalType": "uint256",
          "name": "",
          "type": "uint256"
        }
      ],
      "stateMutability": "view",
      "type": "function"
    },
    {
      "inputs": [
        {
          "internalType": "uint256",
          "name": "",
          "type": "uint256"
        }
      ],
      "name": "_tokenRecords",
      "outputs": [
        {
          "internalType": "uint256",
          "name": "tokenId",
          "type": "uint256"
        },
        {
          "internalType": "uint256",
          "name": "price",
          "type": "uint256"
        },
        {
          "internalType": "uint256",
          "name": "copies",
          "type": "uint256"
        },
        {
          "internalType": "uint256",
          "name": "startTime",
          "type": "uint256"
        },
        {
          "internalType": "uint256",
          "name": "endTime",
          "type": "uint256"
        },
        {
          "internalType": "address",
          "name": "lender",
          "type": "address"
        },
        {
          "internalType": "address",
          "name": "rentedTo",
          "type": "address"
        },
        {
          "internalType": "uint256",
          "name": "recordId5006",
          "type": "uint256"
        }
      ],
      "stateMutability": "view",
      "type": "function"
    },
    {
      "inputs": [
        {
          "internalType": "address",
          "name": "account",
          "type": "address"
        },
        {
          "internalType": "uint256",
          "name": "id",
          "type": "uint256"
        }
      ],
      "name": "balanceOf",
      "outputs": [
        {
          "internalType": "uint256",
          "name": "",
          "type": "uint256"
        }
      ],
      "stateMutability": "view",
      "type": "function"
    },
    {
      "inputs": [
        {
          "internalType": "address[]",
          "name": "accounts",
          "type": "address[]"
        },
        {
          "internalType": "uint256[]",
          "name": "ids",
          "type": "uint256[]"
        }
      ],
      "name": "balanceOfBatch",
      "outputs": [
        {
          "internalType": "uint256[]",
          "name": "",
          "type": "uint256[]"
        }
      ],
      "stateMutability": "view",
      "type": "function"
    },
    {
      "inputs": [
        {
          "internalType": "uint256",
          "name": "recId",
          "type": "uint256"
        }
      ],
      "name": "borrowToken",
      "outputs": [],
      "stateMutability": "payable",
      "type": "function"
    },
    {
      "inputs": [
        {
          "internalType": "address",
          "name": "from",
          "type": "address"
        },
        {
          "internalType": "uint256",
          "name": "id",
          "type": "uint256"
        },
        {
          "internalType": "uint256",
          "name": "copies",
          "type": "uint256"
        }
      ],
      "name": "burn",
      "outputs": [],
      "stateMutability": "nonpayable",
      "type": "function"
    },
    {
      "inputs": [
        {
          "internalType": "address",
          "name": "owner",
          "type": "address"
        },
        {
          "internalType": "address",
          "name": "user",
          "type": "address"
        },
        {
          "internalType": "uint256",
          "name": "tokenId",
          "type": "uint256"
        },
        {
          "internalType": "uint64",
          "name": "amount",
          "type": "uint64"
        },
        {
          "internalType": "uint64",
          "name": "expiry",
          "type": "uint64"
        }
      ],
      "name": "createUserRecord",
      "outputs": [
        {
          "internalType": "uint256",
          "name": "",
          "type": "uint256"
        }
      ],
      "stateMutability": "nonpayable",
      "type": "function"
    },
    {
      "inputs": [
        {
          "internalType": "uint256",
          "name": "recordId",
          "type": "uint256"
        }
      ],
      "name": "deleteUserRecord",
      "outputs": [],
      "stateMutability": "nonpayable",
      "type": "function"
    },
    {
      "inputs": [
        {
          "internalType": "address",
          "name": "account",
          "type": "address"
        },
        {
          "internalType": "uint256",
          "name": "tokenId",
          "type": "uint256"
        }
      ],
      "name": "frozenBalanceOf",
      "outputs": [
        {
          "internalType": "uint256",
          "name": "",
          "type": "uint256"
        }
      ],
      "stateMutability": "view",
      "type": "function"
    },
    {
      "inputs": [],
      "name": "getBorrowedRecordId",
      "outputs": [
        {
          "internalType": "uint256[]",
          "name": "",
          "type": "uint256[]"
        }
      ],
      "stateMutability": "view",
      "type": "function"
    },
    {
      "inputs": [],
      "name": "getLenderAvailableTokens",
      "outputs": [
        {
          "internalType": "uint256[]",
          "name": "",
          "type": "uint256[]"
        }
      ],
      "stateMutability": "view",
      "type": "function"
    },
    {
      "inputs": [
        {
          "internalType": "uint256",
          "name": "token_id",
          "type": "uint256"
        }
      ],
      "name": "getLenderFrozenBalance",
      "outputs": [
        {
          "internalType": "uint256",
          "name": "",
          "type": "uint256"
        }
      ],
      "stateMutability": "view",
      "type": "function"
    },
    {
      "inputs": [
        {
          "internalType": "uint256",
          "name": "token_id",
          "type": "uint256"
        }
      ],
      "name": "getMarkedRecordIds",
      "outputs": [
        {
          "internalType": "uint256[]",
          "name": "",
          "type": "uint256[]"
        }
      ],
      "stateMutability": "view",
      "type": "function"
    },
    {
      "inputs": [
        {
          "internalType": "uint256",
          "name": "token_id",
          "type": "uint256"
        }
      ],
      "name": "getOnRentRecordIds",
      "outputs": [
        {
          "internalType": "uint256[]",
          "name": "",
          "type": "uint256[]"
        }
      ],
      "stateMutability": "view",
      "type": "function"
    },
    {
      "inputs": [
        {
          "internalType": "address",
          "name": "account",
          "type": "address"
        },
        {
          "internalType": "address",
          "name": "operator",
          "type": "address"
        }
      ],
      "name": "isApprovedForAll",
      "outputs": [
        {
          "internalType": "bool",
          "name": "",
          "type": "bool"
        }
      ],
      "stateMutability": "view",
      "type": "function"
    },
    {
      "inputs": [
        {
          "internalType": "address",
          "name": "owner",
          "type": "address"
        }
      ],
      "name": "isOwnerOrApproved",
      "outputs": [
        {
          "internalType": "bool",
          "name": "",
          "type": "bool"
        }
      ],
      "stateMutability": "view",
      "type": "function"
    },
    {
      "inputs": [
        {
          "internalType": "uint256",
          "name": "token_id",
          "type": "uint256"
        },
        {
          "internalType": "uint256",
          "name": "copies",
          "type": "uint256"
        },
        {
          "internalType": "uint256",
          "name": "price",
          "type": "uint256"
        },
        {
          "internalType": "uint256",
          "name": "startTime",
          "type": "uint256"
        },
        {
          "internalType": "uint256",
          "name": "endTime",
          "type": "uint256"
        }
      ],
      "name": "markForRent",
      "outputs": [],
      "stateMutability": "nonpayable",
      "type": "function"
    },
    {
      "inputs": [
        {
          "internalType": "uint256",
          "name": "copies",
          "type": "uint256"
        }
      ],
      "name": "mintToken",
      "outputs": [],
      "stateMutability": "nonpayable",
      "type": "function"
    },
    {
      "inputs": [
        {
          "internalType": "address",
          "name": "operator",
          "type": "address"
        },
        {
          "internalType": "address",
          "name": "from",
          "type": "address"
        },
        {
          "internalType": "uint256[]",
          "name": "ids",
          "type": "uint256[]"
        },
        {
          "internalType": "uint256[]",
          "name": "values",
          "type": "uint256[]"
        },
        {
          "internalType": "bytes",
          "name": "data",
          "type": "bytes"
        }
      ],
      "name": "onERC1155BatchReceived",
      "outputs": [
        {
          "internalType": "bytes4",
          "name": "",
          "type": "bytes4"
        }
      ],
      "stateMutability": "pure",
      "type": "function"
    },
    {
      "inputs": [
        {
          "internalType": "address",
          "name": "operator",
          "type": "address"
        },
        {
          "internalType": "address",
          "name": "from",
          "type": "address"
        },
        {
          "internalType": "uint256",
          "name": "tokenId",
          "type": "uint256"
        },
        {
          "internalType": "uint256",
          "name": "value",
          "type": "uint256"
        },
        {
          "internalType": "bytes",
          "name": "data",
          "type": "bytes"
        }
      ],
      "name": "onERC1155Received",
      "outputs": [
        {
          "internalType": "bytes4",
          "name": "",
          "type": "bytes4"
        }
      ],
      "stateMutability": "pure",
      "type": "function"
    },
    {
      "inputs": [],
      "name": "owner",
      "outputs": [
        {
          "internalType": "address",
          "name": "",
          "type": "address"
        }
      ],
      "stateMutability": "view",
      "type": "function"
    },
    {
      "inputs": [
        {
          "internalType": "uint256",
          "name": "recId",
          "type": "uint256"
        }
      ],
      "name": "removeFromRent",
      "outputs": [],
      "stateMutability": "nonpayable",
      "type": "function"
    },
    {
      "inputs": [],
      "name": "renounceOwnership",
      "outputs": [],
      "stateMutability": "nonpayable",
      "type": "function"
    },
    {
      "inputs": [],
      "name": "returnAmount",
      "outputs": [],
      "stateMutability": "nonpayable",
      "type": "function"
    },
    {
      "inputs": [
        {
          "internalType": "address",
          "name": "from",
          "type": "address"
        },
        {
          "internalType": "address",
          "name": "to",
          "type": "address"
        },
        {
          "internalType": "uint256[]",
          "name": "ids",
          "type": "uint256[]"
        },
        {
          "internalType": "uint256[]",
          "name": "amounts",
          "type": "uint256[]"
        },
        {
          "internalType": "bytes",
          "name": "data",
          "type": "bytes"
        }
      ],
      "name": "safeBatchTransferFrom",
      "outputs": [],
      "stateMutability": "nonpayable",
      "type": "function"
    },
    {
      "inputs": [
        {
          "internalType": "address",
          "name": "from",
          "type": "address"
        },
        {
          "internalType": "address",
          "name": "to",
          "type": "address"
        },
        {
          "internalType": "uint256",
          "name": "id",
          "type": "uint256"
        },
        {
          "internalType": "uint256",
          "name": "amount",
          "type": "uint256"
        },
        {
          "internalType": "bytes",
          "name": "data",
          "type": "bytes"
        }
      ],
      "name": "safeTransferFrom",
      "outputs": [],
      "stateMutability": "nonpayable",
      "type": "function"
    },
    {
      "inputs": [
        {
          "internalType": "address",
          "name": "operator",
          "type": "address"
        },
        {
          "internalType": "bool",
          "name": "approved",
          "type": "bool"
        }
      ],
      "name": "setApprovalForAll",
      "outputs": [],
      "stateMutability": "nonpayable",
      "type": "function"
    },
    {
      "inputs": [
        {
          "internalType": "bytes4",
          "name": "interfaceId",
          "type": "bytes4"
        }
      ],
      "name": "supportsInterface",
      "outputs": [
        {
          "internalType": "bool",
          "name": "",
          "type": "bool"
        }
      ],
      "stateMutability": "view",
      "type": "function"
    },
    {
      "inputs": [
        {
          "internalType": "address",
          "name": "newOwner",
          "type": "address"
        }
      ],
      "name": "transferOwnership",
      "outputs": [],
      "stateMutability": "nonpayable",
      "type": "function"
    },
    {
      "inputs": [
        {
          "internalType": "uint256",
          "name": "",
          "type": "uint256"
        }
      ],
      "name": "uri",
      "outputs": [
        {
          "internalType": "string",
          "name": "",
          "type": "string"
        }
      ],
      "stateMutability": "view",
      "type": "function"
    },
    {
      "inputs": [
        {
          "internalType": "address",
          "name": "account",
          "type": "address"
        },
        {
          "internalType": "uint256",
          "name": "tokenId",
          "type": "uint256"
        }
      ],
      "name": "usableBalanceOf",
      "outputs": [
        {
          "internalType": "uint256",
          "name": "amount",
          "type": "uint256"
        }
      ],
      "stateMutability": "view",
      "type": "function"
    },
    {
      "inputs": [
        {
          "internalType": "uint256",
          "name": "recordId",
          "type": "uint256"
        }
      ],
      "name": "userRecordOf",
      "outputs": [
        {
          "components": [
            {
              "internalType": "uint256",
              "name": "tokenId",
              "type": "uint256"
            },
            {
              "internalType": "address",
              "name": "owner",
              "type": "address"
            },
            {
              "internalType": "uint64",
              "name": "amount",
              "type": "uint64"
            },
            {
              "internalType": "address",
              "name": "user",
              "type": "address"
            },
            {
              "internalType": "uint64",
              "name": "expiry",
              "type": "uint64"
            }
          ],
          "internalType": "struct IERC5006.UserRecord",
          "name": "",
          "type": "tuple"
        }
      ],
      "stateMutability": "view",
      "type": "function"
    },
    {
      "inputs": [],
      "name": "validateLendedTokens",
      "outputs": [
        {
          "internalType": "uint256",
          "name": "",
          "type": "uint256"
        }
      ],
      "stateMutability": "nonpayable",
      "type": "function"
    }
  ],
  "bytecode": "0x60806040523480156200001157600080fd5b506040805160208101909152600081526003816200002f8162000057565b50600755506200003f3362000069565b600980546001600160a01b031916301790556200022c565b600262000065828262000160565b5050565b600880546001600160a01b038381166001600160a01b0319831681179093556040519116919082907f8be0079c531659141344cd1fd0a4f28419497f9722a3daafe3b4186f6b6457e090600090a35050565b634e487b7160e01b600052604160045260246000fd5b600181811c90821680620000e657607f821691505b6020821081036200010757634e487b7160e01b600052602260045260246000fd5b50919050565b601f8211156200015b57600081815260208120601f850160051c81016020861015620001365750805b601f850160051c820191505b81811015620001575782815560010162000142565b5050505b505050565b81516001600160401b038111156200017c576200017c620000bb565b62000194816200018d8454620000d1565b846200010d565b602080601f831160018114620001cc5760008415620001b35750858301515b600019600386901b1c1916600185901b17855562000157565b600085815260208120601f198616915b82811015620001fd57888601518255948401946001909101908401620001dc565b50858210156200021c5787850151600019600388901b60f8161c191681555b5050505050600190811b01905550565b613ce9806200023c6000396000f3fe6080604052600436106101f85760003560e01c80638da5cb5b1161010d578063e6cfb63c116100a0578063f242432a1161006f578063f242432a1461071c578063f2fde38b1461073c578063f35eeaef1461075c578063f5298aca14610771578063f5b3f4241461079157600080fd5b8063e6cfb63c1461060b578063e985e9c51461062b578063f0af245a14610674578063f23a6e61146106ef57600080fd5b8063c634d032116100dc578063c634d03214610596578063cfd44f35146105b6578063d05d2802146105cb578063def2cc56146105eb57600080fd5b80638da5cb5b146104e6578063a22cb4651461050e578063b6487cbc1461052e578063bc197c811461054e57600080fd5b80634a2e88f7116101905780635c9efd001161015f5780635c9efd0014610466578063715018a61461047b5780637634f87314610490578063883d1d5f146104a65780638abcba64146104c657600080fd5b80634a2e88f71461030d5780634e1273f4146103bf5780634fcad101146103ec578063535c0ce31461042457600080fd5b80630e89341c116101cc5780630e89341c1461028a57806324822514146102b75780632eb2c2d6146102cd57806337516f7c146102ed57600080fd5b8062fdd58e146101fd57806301ffc9a71461023057806308a746fa14610260578063092f577614610275575b600080fd5b34801561020957600080fd5b5061021d6102183660046131b0565b6107b1565b6040519081526020015b60405180910390f35b34801561023c57600080fd5b5061025061024b3660046131f0565b61084a565b6040519015158152602001610227565b34801561026c57600080fd5b5061021d61087e565b61028861028336600461320d565b610c91565b005b34801561029657600080fd5b506102aa6102a536600461320d565b611000565b6040516102279190613273565b3480156102c357600080fd5b5061021d600a5481565b3480156102d957600080fd5b506102886102e83660046133cf565b611094565b3480156102f957600080fd5b5061028861030836600461320d565b6110e0565b34801561031957600080fd5b5061037861032836600461320d565b600d6020526000908152604090208054600182015460028301546003840154600485015460058601546006870154600790970154959694959394929391926001600160a01b039182169291169088565b60408051988952602089019790975295870194909452606086019290925260808501526001600160a01b0390811660a08501521660c083015260e082015261010001610227565b3480156103cb57600080fd5b506103df6103da366004613478565b611240565b604051610227919061357d565b3480156103f857600080fd5b5061021d61040736600461320d565b336000908152601060209081526040808320938352929052205490565b34801561043057600080fd5b5061021d61043f3660046131b0565b60009081526003602090815260408083206001600160a01b03949094168352929052205490565b34801561047257600080fd5b506103df611369565b34801561048757600080fd5b50610288611389565b34801561049c57600080fd5b5061021d600b5481565b3480156104b257600080fd5b5061021d6104c13660046135a7565b61139d565b3480156104d257600080fd5b506102886104e136600461320d565b6116f3565b3480156104f257600080fd5b506008546040516001600160a01b039091168152602001610227565b34801561051a57600080fd5b50610288610529366004613605565b611920565b34801561053a57600080fd5b506103df61054936600461320d565b61192f565b34801561055a57600080fd5b5061057d6105693660046136cd565b63bc197c8160e01b98975050505050505050565b6040516001600160e01b03199091168152602001610227565b3480156105a257600080fd5b506102886105b136600461320d565b611999565b3480156105c257600080fd5b506103df6119ce565b3480156105d757600080fd5b506103df6105e636600461320d565b611a2f565b3480156105f757600080fd5b5061021d6106063660046131b0565b611a98565b34801561061757600080fd5b50610288610626366004613787565b611b99565b34801561063757600080fd5b506102506106463660046137c2565b6001600160a01b03918216600090815260016020908152604080832093909416825291909152205460ff1690565b34801561068057600080fd5b5061069461068f36600461320d565b611fc7565b60408051825181526020808401516001600160a01b0390811691830191909152838301516001600160401b0390811693830193909352606080850151909116908201526080928301519091169181019190915260a001610227565b3480156106fb57600080fd5b5061057d61070a3660046137f5565b63f23a6e6160e01b9695505050505050565b34801561072857600080fd5b5061028861073736600461386c565b61205d565b34801561074857600080fd5b506102886107573660046138d0565b6120a2565b34801561076857600080fd5b50610288612118565b34801561077d57600080fd5b5061028861078c3660046138eb565b612144565b34801561079d57600080fd5b506102506107ac3660046138d0565b612154565b60006001600160a01b0383166108215760405162461bcd60e51b815260206004820152602a60248201527f455243313135353a2061646472657373207a65726f206973206e6f742061207660448201526930b634b21037bbb732b960b11b60648201526084015b60405180910390fd5b506000818152602081815260408083206001600160a01b03861684529091529020545b92915050565b60006001600160e01b0319821663309b65b360e21b148061086f575061086f826121bf565b8061084457506108448261220f565b336000908152601160205260408120819061089890612234565b90506000805b8251811015610c8a5760005b336000908152600f6020526040812085519091908690859081106108d0576108d061391e565b6020026020010151815260200190815260200160002080549050811015610c7757336000908152600f60205260408120855161096991600d9184919082908a90899081106109205761092061391e565b6020026020010151815260200190815260200160002085815481106109475761094761391e565b9060005260206000200154815260200190815260200160002060070154611fc7565b60208101519091506001600160a01b03163314801561099457504281608001516001600160401b0316105b15610c6357336000908152600f6020526040812086516109fd92908890879081106109c1576109c161391e565b6020026020010151815260200190815260200160002083815481106109e8576109e861391e565b90600052602060002001548260600151612248565b336000908152600f602052604081208651610a5c9290889087908110610a2557610a2561391e565b602002602001015181526020019081526020016000208381548110610a4c57610a4c61391e565b90600052602060002001546123f8565b6040808201516020808401516001600160a01b03166000908152601082528381208551825290915291822080546001600160401b03909216929091610aa290849061394a565b909155505060208101518151610ab8919061244b565b336000908152600f602052604081208651909190879086908110610ade57610ade61391e565b602002602001015181526020019081526020016000206001600f6000336001600160a01b03166001600160a01b031681526020019081526020016000206000888781518110610b2f57610b2f61391e565b6020026020010151815260200190815260200160002080549050610b53919061394a565b81548110610b6357610b6361391e565b9060005260206000200154600f6000336001600160a01b03166001600160a01b031681526020019081526020016000206000878681518110610ba757610ba761391e565b602002602001015181526020019081526020016000208381548110610bce57610bce61391e565b9060005260206000200181905550600f6000336001600160a01b03166001600160a01b031681526020019081526020016000206000868581518110610c1557610c1561391e565b60200260200101518152602001908152602001600020805480610c3a57610c3a613961565b600190038181906000526020600020016000905590558380610c5b90613977565b945050610c71565b610c6e600183613990565b91505b506108aa565b5080610c8281613977565b91505061089e565b5092915050565b6000818152600d60205260409020600501546001600160a01b0316610cf85760405162461bcd60e51b815260206004820152601d60248201527f53616d706c65353030363a20496e76616c6964205265636f72642049640000006044820152606401610818565b6000818152600d60205260409020600601546001600160a01b031615610d775760405162461bcd60e51b815260206004820152602e60248201527f53616d706c65353030363a205265636f726420616c7265616479206f6e20726560448201526d6e742043616e7420626f72726f7760901b6064820152608401610818565b6000818152600d60205260409020600101543414610dd75760405162461bcd60e51b815260206004820152601e60248201527f53616d706c65353030363a20496e73756666696369656e7420707269636500006044820152606401610818565b6000818152600d60205260409020600501546001600160a01b03163303610e4c5760405162461bcd60e51b8152602060048201526024808201527f53616d706c65353030363a2043616e27742062757920796f7572206f776e207460448201526337b5b2b760e11b6064820152608401610818565b6009546000828152600d6020526040808220600581015481546002830154600493840154945163883d1d5f60e01b81526001600160a01b039384169481019490945233602485015260448401919091526001600160401b03908116606484015290921660848201529192169063883d1d5f9060a4016020604051808303816000875af1158015610ee0573d6000803e3d6000fd5b505050506040513d601f19601f82011682018060405250810190610f0491906139a8565b33600090815260126020908152604080832080546001818101835591855283852001879055868452600d835292819020815161010081018352815481529381015492840192909252600282015490830152600381015460608301526004810154608083015260058101546001600160a01b0390811660a084015260068201541660c08301526007015460e0820152909150610fa0908390612497565b6000828152600d602090815260408083206006810180546001600160a01b03191633179055600781019490945560058401546001600160a01b03168352600f82528083209354835292815291812080546001810182559082529190200155565b60606002805461100f906139c1565b80601f016020809104026020016040519081016040528092919081815260200182805461103b906139c1565b80156110885780601f1061105d57610100808354040283529160200191611088565b820191906000526020600020905b81548152906001019060200180831161106b57829003601f168201915b50505050509050919050565b6001600160a01b0385163314806110b057506110b08533610646565b6110cc5760405162461bcd60e51b8152600401610818906139fb565b6110d98585858585612608565b5050505050565b60008181526004602052604090206001810154611105906001600160a01b0316612154565b61110e57600080fd5b6001810154815460408051602081019091526000815261114d9230926001600160a01b038216929091600160a01b90046001600160401b0316906127e5565b6001810154815460009081526003602090815260408083206001600160a01b038516845290915281208054600160a01b9093046001600160401b03169290919061119890849061394a565b90915550508054600090815260056020908152604080832060028501546001600160a01b0316845290915290206111cf908361290f565b506000828152600460205260408082209182556001820180546001600160e01b031990811690915560029092018054909216909155517fe5e4cc148925690191c27bf527786e1ffbc70eb2e0e1efc9cafc6429b1ee777a906112349084815260200190565b60405180910390a15050565b606081518351146112a55760405162461bcd60e51b815260206004820152602960248201527f455243313135353a206163636f756e747320616e6420696473206c656e677468604482015268040dad2e6dac2e8c6d60bb1b6064820152608401610818565b600083516001600160401b038111156112c0576112c0613286565b6040519080825280602002602001820160405280156112e9578160200160208202803683370190505b50905060005b84518110156113615761133485828151811061130d5761130d61391e565b60200260200101518583815181106113275761132761391e565b60200260200101516107b1565b8282815181106113465761134661391e565b602090810291909101015261135a81613977565b90506112ef565b509392505050565b33600090815260116020526040902060609061138490612234565b905090565b61139161291b565b61139b6000612975565b565b60006113a886612154565b6113b157600080fd5b6001600160a01b0385166114075760405162461bcd60e51b815260206004820152601f60248201527f757365722063616e6e6f7420626520746865207a65726f2061646472657373006044820152606401610818565b6000836001600160401b0316116114605760405162461bcd60e51b815260206004820152601d60248201527f616d6f756e74206d7573742062652067726561746572207468616e20300000006044820152606401610818565b42826001600160401b0316116114c65760405162461bcd60e51b815260206004820152602560248201527f657870697279206d7573742061667465722074686520626c6f636b2074696d6560448201526407374616d760dc1b6064820152608401610818565b60075460008581526005602090815260408083206001600160a01b038a16845290915290206114f4906129c7565b106115415760405162461bcd60e51b815260206004820152601d60248201527f757365722063616e6e6f742068617665206d6f7265207265636f7264730000006044820152606401610818565b611566863086866001600160401b0316604051806020016040528060008152506127e5565b60008481526003602090815260408083206001600160a01b038a168452909152812080546001600160401b03861692906115a1908490613990565b9091555050600680549060006115b683613977565b90915550506040805160a0810182528581526001600160a01b0388811660208084019182526001600160401b038881168587019081528b8516606087018181528a841660808901908152600680546000908152600488528b81209a518b55975160018b0180549651918b166001600160e01b031997881617600160a01b928916830217905592516002909a01805492519a909916919094161797909316909202959095179093559254888252600584528482209282529190925291902061167c916129d1565b5060065460408051918252602082018690526001600160401b03858116838301526001600160a01b03898116606085015288166080840152841660a0830152517faa05e03d03c60cd1d2749f96e50df9c0f2910357e2213b7fbb8c838c9e207d079181900360c00190a15060065495945050505050565b6000818152600d60205260409020600501546001600160a01b031661175a5760405162461bcd60e51b815260206004820152601d60248201527f53616d706c65353030363a20496e76616c6964205265636f72642049640000006044820152606401610818565b6000818152600d60205260409020600501546001600160a01b031633146117d45760405162461bcd60e51b815260206004820152602860248201527f53616d706c65353030363a204e6f7420616e2076616c6964206f776e6572206f60448201526719881c9958dbdc9960c21b6064820152608401610818565b6000818152600d60205260409020600601546001600160a01b0316156118545760405162461bcd60e51b815260206004820152602f60248201527f53616d706c65353030363a20546f6b656e206973206f6e2072656e742043616e60448201526e1d081c995b5bdd99481c9958dbdc99608a1b6064820152608401610818565b6000818152600d602090815260409182902082516101008101845281548152600182015492810192909252600281015492820192909252600382015460608201526004820154608082015260058201546001600160a01b0390811660a083015260068301541660c082015260079091015460e08201526118d5908290612497565b6000818152600d60209081526040808320600281015433855260108452828520915485529252822080549192909161190e90849061394a565b9091555061191d9050816123f8565b50565b61192b3383836129dd565b5050565b336000908152600e6020908152604080832084845282529182902080548351818402810184019094528084526060939283018282801561108857602002820191906000526020600020905b81548152602001906001019080831161197a5750505050509050919050565b6119b633600a548360405180602001604052806000815250612abd565b600a80549060006119c683613977565b919050555050565b33600090815260126020908152604091829020805483518184028101840190945280845260609392830182828015611a2557602002820191906000526020600020905b815481526020019060010190808311611a11575b5050505050905090565b336000908152600f60209081526040808320848452825291829020805483518184028101840190945280845260609392830182828015611088576020028201919060005260206000209081548152602001906001019080831161197a5750505050509050919050565b60008181526005602090815260408083206001600160a01b038616845290915281208190611ac590612234565b905060005b8151811015611b915760046000838381518110611ae957611ae961391e565b6020026020010151815260200190815260200160002060020160149054906101000a90046001600160401b03166001600160401b03164211611b7f5760046000838381518110611b3b57611b3b61391e565b6020026020010151815260200190815260200160002060010160149054906101000a90046001600160401b03166001600160401b031683611b7c9190613990565b92505b80611b8981613977565b915050611aca565b505092915050565b3385856000611ba884846107b1565b6001600160a01b03851660009081526010602090815260408083208784529091529020549091508281831015611be757611be2838361394a565b611bf1565b611bf1828461394a565b1015611c585760405162461bcd60e51b815260206004820152603060248201527f53616d706c65353030363a204c656e64657220646f6e74206861766520656e6f60448201526f75676820746f6b656e20636f7069657360801b6064820152608401610818565b60008811611cce5760405162461bcd60e51b815260206004820152603760248201527f53616d706c65353030363a2052656e74696e672070726963652073686f756c6460448201527f20626520626520676561746572207468616e207a65726f0000000000000000006064820152608401610818565b600087118015611cde5750600086115b611d365760405162461bcd60e51b8152602060048201526024808201527f53616d706c65353030363a2054696d657374616d702063616e6e6f74206265206044820152637a65726f60e01b6064820152608401610818565b42861015611dac5760405162461bcd60e51b815260206004820152603860248201527f53616d706c65353030363a20456e642074696d652073686f756c64206265206760448201527f726561746572207468616e2063757272656e742074696d6500000000000000006064820152608401610818565b60008911611e065760405162461bcd60e51b815260206004820152602160248201527f53616d706c65353030363a20436f706965732063616e6e6f74206265207a65726044820152606f60f81b6064820152608401610818565b6040518061010001604052808b81526020018981526020018a8152602001888152602001878152602001336001600160a01b0316815260200160006001600160a01b031681526020016000815250600d6000600b548152602001908152602001600020600082015181600001556020820151816001015560408201518160020155606082015181600301556080820151816004015560a08201518160050160006101000a8154816001600160a01b0302191690836001600160a01b0316021790555060c08201518160060160006101000a8154816001600160a01b0302191690836001600160a01b0316021790555060e08201518160070155905050600e6000336001600160a01b03166001600160a01b0316815260200190815260200160002060008b8152602001908152602001600020600b549080600181540180825580915050600190039060005260206000200160009091909190915055611f6b338b612bd1565b3360009081526010602090815260408083208d8452909152812080548b9290611f95908490613990565b90915550611fa69050306001611920565b600b8054906000611fb683613977565b919050555050505050505050505050565b6040805160a08101825260008082526020820181905291810182905260608101829052608081019190915250600090815260046020908152604091829020825160a0810184528154815260018201546001600160a01b03808216948301949094526001600160401b03600160a01b9182900481169583019590955260029092015492831660608201529104909116608082015290565b6001600160a01b03851633148061207957506120798533610646565b6120955760405162461bcd60e51b8152600401610818906139fb565b6110d985858585856127e5565b6120aa61291b565b6001600160a01b03811661210f5760405162461bcd60e51b815260206004820152602660248201527f4f776e61626c653a206e6577206f776e657220697320746865207a65726f206160448201526564647265737360d01b6064820152608401610818565b61191d81612975565b60405133904780156108fc02916000818181858888f1935050505015801561191d573d6000803e3d6000fd5b61214f838383612c1b565b505050565b60006001600160a01b03821633148061217257506121728233610646565b6121b75760405162461bcd60e51b81526020600482015260166024820152751bdb9b1e481bdddb995c881bdc88185c1c1c9bdd995960521b6044820152606401610818565b506001919050565b60006001600160e01b03198216636cdb3d1360e11b14806121f057506001600160e01b031982166303a24d0760e21b145b8061084457506301ffc9a760e01b6001600160e01b0319831614610844565b60006001600160e01b03198216630271189760e51b14806108445750610844826121bf565b6060600061224183612d97565b9392505050565b60005b6001600160a01b03821660009081526012602052604090205481101561214f576001600160a01b03821660009081526012602052604090208054849190839081106122985761229861391e565b9060005260206000200154036123e6576009546000848152600d602052604090819020600701549051630dd45bdf60e21b81526001600160a01b03909216916337516f7c916122ed9160040190815260200190565b600060405180830381600087803b15801561230757600080fd5b505af115801561231b573d6000803e3d6000fd5b505050506001600160a01b038216600090815260126020526040902080546123459060019061394a565b815481106123555761235561391e565b906000526020600020015460126000846001600160a01b03166001600160a01b0316815260200190815260200160002082815481106123965761239661391e565b60009182526020808320909101929092556001600160a01b03841681526012909152604090208054806123cb576123cb613961565b60019003818190600052602060002001600090559055505050565b806123f081613977565b91505061224b565b6000908152600d60205260408120818155600181018290556002810182905560038101829055600481018290556005810180546001600160a01b0319908116909155600682018054909116905560070155565b6001600160a01b0382166000908152601060209081526040808320848452909152812054900361192b576001600160a01b038216600090815260116020526040902061214f908261290f565b60005b60a08201516001600160a01b03166000908152600e602090815260408083208551845290915290205481101561214f5760a08201516001600160a01b03166000908152600e602090815260408083208551845290915290208054849190839081106125075761250761391e565b9060005260206000200154036125f65760a0820180516001600160a01b039081166000908152600e602081815260408084208851855282528084209551909416835290815282822086518352905220546125639060019061394a565b815481106125735761257361391e565b600091825260208083209091015460a08501516001600160a01b03168352600e825260408084208651855290925291208054839081106125b5576125b561391e565b600091825260208083209091019290925560a08401516001600160a01b03168152600e8252604080822085518352909252208054806123cb576123cb613961565b8061260081613977565b91505061249a565b815183511461266a5760405162461bcd60e51b815260206004820152602860248201527f455243313135353a2069647320616e6420616d6f756e7473206c656e677468206044820152670dad2e6dac2e8c6d60c31b6064820152608401610818565b6001600160a01b0384166126905760405162461bcd60e51b815260040161081890613a49565b3360005b84518110156127775760008582815181106126b1576126b161391e565b6020026020010151905060008583815181106126cf576126cf61391e565b602090810291909101810151600084815280835260408082206001600160a01b038e16835290935291909120549091508181101561271f5760405162461bcd60e51b815260040161081890613a8e565b6000838152602081815260408083206001600160a01b038e8116855292528083208585039055908b1682528120805484929061275c908490613990565b925050819055505050508061277090613977565b9050612694565b50846001600160a01b0316866001600160a01b0316826001600160a01b03167f4a39dc06d4c0dbc64b70af90fd698a233a518aa5d07e595d983b8c0526c8f7fb87876040516127c7929190613ad8565b60405180910390a46127dd818787878787612df1565b505050505050565b6001600160a01b03841661280b5760405162461bcd60e51b815260040161081890613a49565b33600061281785612f4c565b9050600061282485612f4c565b90506000868152602081815260408083206001600160a01b038c168452909152902054858110156128675760405162461bcd60e51b815260040161081890613a8e565b6000878152602081815260408083206001600160a01b038d8116855292528083208985039055908a168252812080548892906128a4908490613990565b909155505060408051888152602081018890526001600160a01b03808b16928c821692918816917fc3d58168c5ae7397731d063d5bbf3d657854427343f4c083240f7aacaa2d0f62910160405180910390a4612904848a8a8a8a8a612f97565b505050505050505050565b60006122418383613052565b6008546001600160a01b0316331461139b5760405162461bcd60e51b815260206004820181905260248201527f4f776e61626c653a2063616c6c6572206973206e6f7420746865206f776e65726044820152606401610818565b600880546001600160a01b038381166001600160a01b0319831681179093556040519116919082907f8be0079c531659141344cd1fd0a4f28419497f9722a3daafe3b4186f6b6457e090600090a35050565b6000610844825490565b60006122418383613145565b816001600160a01b0316836001600160a01b031603612a505760405162461bcd60e51b815260206004820152602960248201527f455243313135353a2073657474696e6720617070726f76616c20737461747573604482015268103337b91039b2b63360b91b6064820152608401610818565b6001600160a01b03838116600081815260016020908152604080832094871680845294825291829020805460ff191686151590811790915591519182527f17307eab39ab6107e8899845ad3d59bd9653f200f220920489ca2b5937696c31910160405180910390a3505050565b6001600160a01b038416612b1d5760405162461bcd60e51b815260206004820152602160248201527f455243313135353a206d696e7420746f20746865207a65726f206164647265736044820152607360f81b6064820152608401610818565b336000612b2985612f4c565b90506000612b3685612f4c565b90506000868152602081815260408083206001600160a01b038b16845290915281208054879290612b68908490613990565b909155505060408051878152602081018790526001600160a01b03808a1692600092918716917fc3d58168c5ae7397731d063d5bbf3d657854427343f4c083240f7aacaa2d0f62910160405180910390a4612bc883600089898989612f97565b50505050505050565b6001600160a01b038216600090815260106020908152604080832084845290915290205461192b576001600160a01b038216600090815260116020526040902061214f90826129d1565b6001600160a01b038316612c7d5760405162461bcd60e51b815260206004820152602360248201527f455243313135353a206275726e2066726f6d20746865207a65726f206164647260448201526265737360e81b6064820152608401610818565b336000612c8984612f4c565b90506000612c9684612f4c565b60408051602080820183526000918290528882528181528282206001600160a01b038b1683529052205490915084811015612d1f5760405162461bcd60e51b8152602060048201526024808201527f455243313135353a206275726e20616d6f756e7420657863656564732062616c604482015263616e636560e01b6064820152608401610818565b6000868152602081815260408083206001600160a01b038b81168086529184528285208a8703905582518b81529384018a90529092908816917fc3d58168c5ae7397731d063d5bbf3d657854427343f4c083240f7aacaa2d0f62910160405180910390a4604080516020810190915260009052612bc8565b606081600001805480602002602001604051908101604052809291908181526020018280548015611088576020028201919060005260206000209081548152602001906001019080831161197a5750505050509050919050565b6001600160a01b0384163b156127dd5760405163bc197c8160e01b81526001600160a01b0385169063bc197c8190612e359089908990889088908890600401613b06565b6020604051808303816000875af1925050508015612e70575060408051601f3d908101601f19168201909252612e6d91810190613b64565b60015b612f1c57612e7c613b81565b806308c379a003612eb55750612e90613b9d565b80612e9b5750612eb7565b8060405162461bcd60e51b81526004016108189190613273565b505b60405162461bcd60e51b815260206004820152603460248201527f455243313135353a207472616e7366657220746f206e6f6e2d455243313135356044820152732932b1b2b4bb32b91034b6b83632b6b2b73a32b960611b6064820152608401610818565b6001600160e01b0319811663bc197c8160e01b14612bc85760405162461bcd60e51b815260040161081890613c26565b60408051600180825281830190925260609160009190602080830190803683370190505090508281600081518110612f8657612f8661391e565b602090810291909101015292915050565b6001600160a01b0384163b156127dd5760405163f23a6e6160e01b81526001600160a01b0385169063f23a6e6190612fdb9089908990889088908890600401613c6e565b6020604051808303816000875af1925050508015613016575060408051601f3d908101601f1916820190925261301391810190613b64565b60015b61302257612e7c613b81565b6001600160e01b0319811663f23a6e6160e01b14612bc85760405162461bcd60e51b815260040161081890613c26565b6000818152600183016020526040812054801561313b57600061307660018361394a565b855490915060009061308a9060019061394a565b90508181146130ef5760008660000182815481106130aa576130aa61391e565b90600052602060002001549050808760000184815481106130cd576130cd61391e565b6000918252602080832090910192909255918252600188019052604090208390555b855486908061310057613100613961565b600190038181906000526020600020016000905590558560010160008681526020019081526020016000206000905560019350505050610844565b6000915050610844565b600081815260018301602052604081205461318c57508154600181810184556000848152602080822090930184905584548482528286019093526040902091909155610844565b506000610844565b80356001600160a01b03811681146131ab57600080fd5b919050565b600080604083850312156131c357600080fd5b6131cc83613194565b946020939093013593505050565b6001600160e01b03198116811461191d57600080fd5b60006020828403121561320257600080fd5b8135612241816131da565b60006020828403121561321f57600080fd5b5035919050565b6000815180845260005b8181101561324c57602081850181015186830182015201613230565b8181111561325e576000602083870101525b50601f01601f19169290920160200192915050565b6020815260006122416020830184613226565b634e487b7160e01b600052604160045260246000fd5b601f8201601f191681016001600160401b03811182821017156132c1576132c1613286565b6040525050565b60006001600160401b038211156132e1576132e1613286565b5060051b60200190565b600082601f8301126132fc57600080fd5b81356020613309826132c8565b604051613316828261329c565b83815260059390931b850182019282810191508684111561333657600080fd5b8286015b84811015613351578035835291830191830161333a565b509695505050505050565b600082601f83011261336d57600080fd5b81356001600160401b0381111561338657613386613286565b60405161339d601f8301601f19166020018261329c565b8181528460208386010111156133b257600080fd5b816020850160208301376000918101602001919091529392505050565b600080600080600060a086880312156133e757600080fd5b6133f086613194565b94506133fe60208701613194565b935060408601356001600160401b038082111561341a57600080fd5b61342689838a016132eb565b9450606088013591508082111561343c57600080fd5b61344889838a016132eb565b9350608088013591508082111561345e57600080fd5b5061346b8882890161335c565b9150509295509295909350565b6000806040838503121561348b57600080fd5b82356001600160401b03808211156134a257600080fd5b818501915085601f8301126134b657600080fd5b813560206134c3826132c8565b6040516134d0828261329c565b83815260059390931b85018201928281019150898411156134f057600080fd5b948201945b838610156135155761350686613194565b825294820194908201906134f5565b9650508601359250508082111561352b57600080fd5b50613538858286016132eb565b9150509250929050565b600081518084526020808501945080840160005b8381101561357257815187529582019590820190600101613556565b509495945050505050565b6020815260006122416020830184613542565b80356001600160401b03811681146131ab57600080fd5b600080600080600060a086880312156135bf57600080fd5b6135c886613194565b94506135d660208701613194565b9350604086013592506135eb60608701613590565b91506135f960808701613590565b90509295509295909350565b6000806040838503121561361857600080fd5b61362183613194565b91506020830135801515811461363657600080fd5b809150509250929050565b60008083601f84011261365357600080fd5b5081356001600160401b0381111561366a57600080fd5b6020830191508360208260051b850101111561368557600080fd5b9250929050565b60008083601f84011261369e57600080fd5b5081356001600160401b038111156136b557600080fd5b60208301915083602082850101111561368557600080fd5b60008060008060008060008060a0898b0312156136e957600080fd5b6136f289613194565b975061370060208a01613194565b965060408901356001600160401b038082111561371c57600080fd5b6137288c838d01613641565b909850965060608b013591508082111561374157600080fd5b61374d8c838d01613641565b909650945060808b013591508082111561376657600080fd5b506137738b828c0161368c565b999c989b5096995094979396929594505050565b600080600080600060a0868803121561379f57600080fd5b505083359560208501359550604085013594606081013594506080013592509050565b600080604083850312156137d557600080fd5b6137de83613194565b91506137ec60208401613194565b90509250929050565b60008060008060008060a0878903121561380e57600080fd5b61381787613194565b955061382560208801613194565b9450604087013593506060870135925060808701356001600160401b0381111561384e57600080fd5b61385a89828a0161368c565b979a9699509497509295939492505050565b600080600080600060a0868803121561388457600080fd5b61388d86613194565b945061389b60208701613194565b9350604086013592506060860135915060808601356001600160401b038111156138c457600080fd5b61346b8882890161335c565b6000602082840312156138e257600080fd5b61224182613194565b60008060006060848603121561390057600080fd5b61390984613194565b95602085013595506040909401359392505050565b634e487b7160e01b600052603260045260246000fd5b634e487b7160e01b600052601160045260246000fd5b60008282101561395c5761395c613934565b500390565b634e487b7160e01b600052603160045260246000fd5b60006001820161398957613989613934565b5060010190565b600082198211156139a3576139a3613934565b500190565b6000602082840312156139ba57600080fd5b5051919050565b600181811c908216806139d557607f821691505b6020821081036139f557634e487b7160e01b600052602260045260246000fd5b50919050565b6020808252602e908201527f455243313135353a2063616c6c6572206973206e6f7420746f6b656e206f776e60408201526d195c881bdc88185c1c1c9bdd995960921b606082015260800190565b60208082526025908201527f455243313135353a207472616e7366657220746f20746865207a65726f206164604082015264647265737360d81b606082015260800190565b6020808252602a908201527f455243313135353a20696e73756666696369656e742062616c616e636520666f60408201526939103a3930b739b332b960b11b606082015260800190565b604081526000613aeb6040830185613542565b8281036020840152613afd8185613542565b95945050505050565b6001600160a01b0386811682528516602082015260a060408201819052600090613b3290830186613542565b8281036060840152613b448186613542565b90508281036080840152613b588185613226565b98975050505050505050565b600060208284031215613b7657600080fd5b8151612241816131da565b600060033d1115613b9a5760046000803e5060005160e01c5b90565b600060443d1015613bab5790565b6040516003193d81016004833e81513d6001600160401b038160248401118184111715613bda57505050505090565b8285019150815181811115613bf25750505050505090565b843d8701016020828501011115613c0c5750505050505090565b613c1b6020828601018761329c565b509095945050505050565b60208082526028908201527f455243313135353a204552433131353552656365697665722072656a656374656040820152676420746f6b656e7360c01b606082015260800190565b6001600160a01b03868116825285166020820152604081018490526060810183905260a060808201819052600090613ca890830184613226565b97965050505050505056fea2646970667358221220473a9791fec723a392ca041c73d80578e4728932987f4b90cc68e721b41177d064736f6c634300080f0033",
  "linkReferences": {},
  "deployedLinkReferences": {}
}