{
  "_format": "hh-sol-artifact-1",
  "contractName": "SampleERC5006",
  "sourceName": "contracts/SampleERC5006.sol",
  "abi": [
    {
      "inputs": [],
      "stateMutability": "nonpayable",
      "type": "constructor"
    },
    {
      "anonymous": false,
      "inputs": [
        {
          "indexed": true,
          "internalType": "address",
          "name": "account",
          "type": "address"
        },
        {
          "indexed": true,
          "internalType": "address",
          "name": "operator",
          "type": "address"
        },
        {
          "indexed": false,
          "internalType": "bool",
          "name": "approved",
          "type": "bool"
        }
      ],
      "name": "ApprovalForAll",
      "type": "event"
    },
    {
      "anonymous": false,
      "inputs": [
        {
          "indexed": false,
          "internalType": "uint256",
          "name": "recordId",
          "type": "uint256"
        },
        {
          "indexed": false,
          "internalType": "uint256",
          "name": "tokenId",
          "type": "uint256"
        },
        {
          "indexed": false,
          "internalType": "uint64",
          "name": "amount",
          "type": "uint64"
        },
        {
          "indexed": false,
          "internalType": "address",
          "name": "owner",
          "type": "address"
        },
        {
          "indexed": false,
          "internalType": "address",
          "name": "user",
          "type": "address"
        },
        {
          "indexed": false,
          "internalType": "uint64",
          "name": "expiry",
          "type": "uint64"
        }
      ],
      "name": "CreateUserRecord",
      "type": "event"
    },
    {
      "anonymous": false,
      "inputs": [
        {
          "indexed": false,
          "internalType": "uint256",
          "name": "recordId",
          "type": "uint256"
        }
      ],
      "name": "DeleteUserRecord",
      "type": "event"
    },
    {
      "anonymous": false,
      "inputs": [
        {
          "indexed": true,
          "internalType": "address",
          "name": "previousOwner",
          "type": "address"
        },
        {
          "indexed": true,
          "internalType": "address",
          "name": "newOwner",
          "type": "address"
        }
      ],
      "name": "OwnershipTransferred",
      "type": "event"
    },
    {
      "anonymous": false,
      "inputs": [
        {
          "indexed": true,
          "internalType": "address",
          "name": "operator",
          "type": "address"
        },
        {
          "indexed": true,
          "internalType": "address",
          "name": "from",
          "type": "address"
        },
        {
          "indexed": true,
          "internalType": "address",
          "name": "to",
          "type": "address"
        },
        {
          "indexed": false,
          "internalType": "uint256[]",
          "name": "ids",
          "type": "uint256[]"
        },
        {
          "indexed": false,
          "internalType": "uint256[]",
          "name": "values",
          "type": "uint256[]"
        }
      ],
      "name": "TransferBatch",
      "type": "event"
    },
    {
      "anonymous": false,
      "inputs": [
        {
          "indexed": true,
          "internalType": "address",
          "name": "operator",
          "type": "address"
        },
        {
          "indexed": true,
          "internalType": "address",
          "name": "from",
          "type": "address"
        },
        {
          "indexed": true,
          "internalType": "address",
          "name": "to",
          "type": "address"
        },
        {
          "indexed": false,
          "internalType": "uint256",
          "name": "id",
          "type": "uint256"
        },
        {
          "indexed": false,
          "internalType": "uint256",
          "name": "value",
          "type": "uint256"
        }
      ],
      "name": "TransferSingle",
      "type": "event"
    },
    {
      "anonymous": false,
      "inputs": [
        {
          "indexed": false,
          "internalType": "string",
          "name": "value",
          "type": "string"
        },
        {
          "indexed": true,
          "internalType": "uint256",
          "name": "id",
          "type": "uint256"
        }
      ],
      "name": "URI",
      "type": "event"
    },
    {
      "inputs": [],
      "name": "_recId",
      "outputs": [
        {
          "internalType": "uint256",
          "name": "",
          "type": "uint256"
        }
      ],
      "stateMutability": "view",
      "type": "function"
    },
    {
      "inputs": [],
      "name": "_tokenId",
      "outputs": [
        {
          "internalType": "uint256",
          "name": "",
          "type": "uint256"
        }
      ],
      "stateMutability": "view",
      "type": "function"
    },
    {
      "inputs": [
        {
          "internalType": "uint256",
          "name": "",
          "type": "uint256"
        }
      ],
      "name": "_tokenRecords",
      "outputs": [
        {
          "internalType": "uint256",
          "name": "tokenId",
          "type": "uint256"
        },
        {
          "internalType": "uint256",
          "name": "price",
          "type": "uint256"
        },
        {
          "internalType": "uint256",
          "name": "copies",
          "type": "uint256"
        },
        {
          "internalType": "uint256",
          "name": "startTime",
          "type": "uint256"
        },
        {
          "internalType": "uint256",
          "name": "endTime",
          "type": "uint256"
        },
        {
          "internalType": "address",
          "name": "lender",
          "type": "address"
        },
        {
          "internalType": "address",
          "name": "rentedTo",
          "type": "address"
        },
        {
          "internalType": "uint256",
          "name": "recordId5006",
          "type": "uint256"
        }
      ],
      "stateMutability": "view",
      "type": "function"
    },
    {
      "inputs": [
        {
          "internalType": "uint256",
          "name": "",
          "type": "uint256"
        }
      ],
      "name": "_uri",
      "outputs": [
        {
          "internalType": "string",
          "name": "",
          "type": "string"
        }
      ],
      "stateMutability": "view",
      "type": "function"
    },
    {
      "inputs": [
        {
          "internalType": "address",
          "name": "account",
          "type": "address"
        },
        {
          "internalType": "uint256",
          "name": "id",
          "type": "uint256"
        }
      ],
      "name": "balanceOf",
      "outputs": [
        {
          "internalType": "uint256",
          "name": "",
          "type": "uint256"
        }
      ],
      "stateMutability": "view",
      "type": "function"
    },
    {
      "inputs": [
        {
          "internalType": "address[]",
          "name": "accounts",
          "type": "address[]"
        },
        {
          "internalType": "uint256[]",
          "name": "ids",
          "type": "uint256[]"
        }
      ],
      "name": "balanceOfBatch",
      "outputs": [
        {
          "internalType": "uint256[]",
          "name": "",
          "type": "uint256[]"
        }
      ],
      "stateMutability": "view",
      "type": "function"
    },
    {
      "inputs": [
        {
          "internalType": "uint256",
          "name": "recId",
          "type": "uint256"
        }
      ],
      "name": "borrowToken",
      "outputs": [],
      "stateMutability": "payable",
      "type": "function"
    },
    {
      "inputs": [
        {
          "internalType": "address",
          "name": "from",
          "type": "address"
        },
        {
          "internalType": "uint256",
          "name": "id",
          "type": "uint256"
        },
        {
          "internalType": "uint256",
          "name": "copies",
          "type": "uint256"
        }
      ],
      "name": "burn",
      "outputs": [],
      "stateMutability": "nonpayable",
      "type": "function"
    },
    {
      "inputs": [
        {
          "internalType": "address",
          "name": "owner",
          "type": "address"
        },
        {
          "internalType": "address",
          "name": "user",
          "type": "address"
        },
        {
          "internalType": "uint256",
          "name": "tokenId",
          "type": "uint256"
        },
        {
          "internalType": "uint64",
          "name": "amount",
          "type": "uint64"
        },
        {
          "internalType": "uint64",
          "name": "expiry",
          "type": "uint64"
        }
      ],
      "name": "createUserRecord",
      "outputs": [
        {
          "internalType": "uint256",
          "name": "",
          "type": "uint256"
        }
      ],
      "stateMutability": "nonpayable",
      "type": "function"
    },
    {
      "inputs": [
        {
          "internalType": "uint256",
          "name": "recordId",
          "type": "uint256"
        }
      ],
      "name": "deleteUserRecord",
      "outputs": [],
      "stateMutability": "nonpayable",
      "type": "function"
    },
    {
      "inputs": [
        {
          "internalType": "address",
          "name": "account",
          "type": "address"
        },
        {
          "internalType": "uint256",
          "name": "tokenId",
          "type": "uint256"
        }
      ],
      "name": "frozenBalanceOf",
      "outputs": [
        {
          "internalType": "uint256",
          "name": "",
          "type": "uint256"
        }
      ],
      "stateMutability": "view",
      "type": "function"
    },
    {
      "inputs": [],
      "name": "getBorrowedRecordId",
      "outputs": [
        {
          "internalType": "uint256[]",
          "name": "",
          "type": "uint256[]"
        }
      ],
      "stateMutability": "view",
      "type": "function"
    },
    {
      "inputs": [],
      "name": "getLenderAvailableTokens",
      "outputs": [
        {
          "internalType": "uint256[]",
          "name": "",
          "type": "uint256[]"
        }
      ],
      "stateMutability": "view",
      "type": "function"
    },
    {
      "inputs": [
        {
          "internalType": "uint256",
          "name": "token_id",
          "type": "uint256"
        }
      ],
      "name": "getLenderFrozenBalance",
      "outputs": [
        {
          "internalType": "uint256",
          "name": "",
          "type": "uint256"
        }
      ],
      "stateMutability": "view",
      "type": "function"
    },
    {
      "inputs": [
        {
          "internalType": "uint256",
          "name": "token_id",
          "type": "uint256"
        }
      ],
      "name": "getMarkedRecordIds",
      "outputs": [
        {
          "internalType": "uint256[]",
          "name": "",
          "type": "uint256[]"
        }
      ],
      "stateMutability": "view",
      "type": "function"
    },
    {
      "inputs": [
        {
          "internalType": "uint256",
          "name": "token_id",
          "type": "uint256"
        }
      ],
      "name": "getOnRentRecordIds",
      "outputs": [
        {
          "internalType": "uint256[]",
          "name": "",
          "type": "uint256[]"
        }
      ],
      "stateMutability": "view",
      "type": "function"
    },
    {
      "inputs": [
        {
          "internalType": "address",
          "name": "account",
          "type": "address"
        },
        {
          "internalType": "address",
          "name": "operator",
          "type": "address"
        }
      ],
      "name": "isApprovedForAll",
      "outputs": [
        {
          "internalType": "bool",
          "name": "",
          "type": "bool"
        }
      ],
      "stateMutability": "view",
      "type": "function"
    },
    {
      "inputs": [
        {
          "internalType": "address",
          "name": "owner",
          "type": "address"
        }
      ],
      "name": "isOwnerOrApproved",
      "outputs": [
        {
          "internalType": "bool",
          "name": "",
          "type": "bool"
        }
      ],
      "stateMutability": "view",
      "type": "function"
    },
    {
      "inputs": [
        {
          "internalType": "uint256",
          "name": "token_id",
          "type": "uint256"
        },
        {
          "internalType": "uint256",
          "name": "copies",
          "type": "uint256"
        },
        {
          "internalType": "uint256",
          "name": "price",
          "type": "uint256"
        },
        {
          "internalType": "uint256",
          "name": "startTime",
          "type": "uint256"
        },
        {
          "internalType": "uint256",
          "name": "endTime",
          "type": "uint256"
        }
      ],
      "name": "markForRent",
      "outputs": [],
      "stateMutability": "nonpayable",
      "type": "function"
    },
    {
      "inputs": [
        {
          "internalType": "string",
          "name": "uri",
          "type": "string"
        },
        {
          "internalType": "uint256",
          "name": "copies",
          "type": "uint256"
        }
      ],
      "name": "mintToken",
      "outputs": [],
      "stateMutability": "nonpayable",
      "type": "function"
    },
    {
      "inputs": [
        {
          "internalType": "address",
          "name": "operator",
          "type": "address"
        },
        {
          "internalType": "address",
          "name": "from",
          "type": "address"
        },
        {
          "internalType": "uint256[]",
          "name": "ids",
          "type": "uint256[]"
        },
        {
          "internalType": "uint256[]",
          "name": "values",
          "type": "uint256[]"
        },
        {
          "internalType": "bytes",
          "name": "data",
          "type": "bytes"
        }
      ],
      "name": "onERC1155BatchReceived",
      "outputs": [
        {
          "internalType": "bytes4",
          "name": "",
          "type": "bytes4"
        }
      ],
      "stateMutability": "pure",
      "type": "function"
    },
    {
      "inputs": [
        {
          "internalType": "address",
          "name": "operator",
          "type": "address"
        },
        {
          "internalType": "address",
          "name": "from",
          "type": "address"
        },
        {
          "internalType": "uint256",
          "name": "tokenId",
          "type": "uint256"
        },
        {
          "internalType": "uint256",
          "name": "value",
          "type": "uint256"
        },
        {
          "internalType": "bytes",
          "name": "data",
          "type": "bytes"
        }
      ],
      "name": "onERC1155Received",
      "outputs": [
        {
          "internalType": "bytes4",
          "name": "",
          "type": "bytes4"
        }
      ],
      "stateMutability": "pure",
      "type": "function"
    },
    {
      "inputs": [],
      "name": "owner",
      "outputs": [
        {
          "internalType": "address",
          "name": "",
          "type": "address"
        }
      ],
      "stateMutability": "view",
      "type": "function"
    },
    {
      "inputs": [
        {
          "internalType": "uint256",
          "name": "recId",
          "type": "uint256"
        }
      ],
      "name": "removeFromRent",
      "outputs": [],
      "stateMutability": "nonpayable",
      "type": "function"
    },
    {
      "inputs": [],
      "name": "renounceOwnership",
      "outputs": [],
      "stateMutability": "nonpayable",
      "type": "function"
    },
    {
      "inputs": [],
      "name": "returnAmount",
      "outputs": [],
      "stateMutability": "nonpayable",
      "type": "function"
    },
    {
      "inputs": [
        {
          "internalType": "address",
          "name": "from",
          "type": "address"
        },
        {
          "internalType": "address",
          "name": "to",
          "type": "address"
        },
        {
          "internalType": "uint256[]",
          "name": "ids",
          "type": "uint256[]"
        },
        {
          "internalType": "uint256[]",
          "name": "amounts",
          "type": "uint256[]"
        },
        {
          "internalType": "bytes",
          "name": "data",
          "type": "bytes"
        }
      ],
      "name": "safeBatchTransferFrom",
      "outputs": [],
      "stateMutability": "nonpayable",
      "type": "function"
    },
    {
      "inputs": [
        {
          "internalType": "address",
          "name": "from",
          "type": "address"
        },
        {
          "internalType": "address",
          "name": "to",
          "type": "address"
        },
        {
          "internalType": "uint256",
          "name": "id",
          "type": "uint256"
        },
        {
          "internalType": "uint256",
          "name": "amount",
          "type": "uint256"
        },
        {
          "internalType": "bytes",
          "name": "data",
          "type": "bytes"
        }
      ],
      "name": "safeTransferFrom",
      "outputs": [],
      "stateMutability": "nonpayable",
      "type": "function"
    },
    {
      "inputs": [
        {
          "internalType": "address",
          "name": "operator",
          "type": "address"
        },
        {
          "internalType": "bool",
          "name": "approved",
          "type": "bool"
        }
      ],
      "name": "setApprovalForAll",
      "outputs": [],
      "stateMutability": "nonpayable",
      "type": "function"
    },
    {
      "inputs": [
        {
          "internalType": "bytes4",
          "name": "interfaceId",
          "type": "bytes4"
        }
      ],
      "name": "supportsInterface",
      "outputs": [
        {
          "internalType": "bool",
          "name": "",
          "type": "bool"
        }
      ],
      "stateMutability": "view",
      "type": "function"
    },
    {
      "inputs": [
        {
          "internalType": "address",
          "name": "newOwner",
          "type": "address"
        }
      ],
      "name": "transferOwnership",
      "outputs": [],
      "stateMutability": "nonpayable",
      "type": "function"
    },
    {
      "inputs": [
        {
          "internalType": "uint256",
          "name": "",
          "type": "uint256"
        }
      ],
      "name": "uri",
      "outputs": [
        {
          "internalType": "string",
          "name": "",
          "type": "string"
        }
      ],
      "stateMutability": "view",
      "type": "function"
    },
    {
      "inputs": [
        {
          "internalType": "address",
          "name": "account",
          "type": "address"
        },
        {
          "internalType": "uint256",
          "name": "tokenId",
          "type": "uint256"
        }
      ],
      "name": "usableBalanceOf",
      "outputs": [
        {
          "internalType": "uint256",
          "name": "amount",
          "type": "uint256"
        }
      ],
      "stateMutability": "view",
      "type": "function"
    },
    {
      "inputs": [
        {
          "internalType": "uint256",
          "name": "recordId",
          "type": "uint256"
        }
      ],
      "name": "userRecordOf",
      "outputs": [
        {
          "components": [
            {
              "internalType": "uint256",
              "name": "tokenId",
              "type": "uint256"
            },
            {
              "internalType": "address",
              "name": "owner",
              "type": "address"
            },
            {
              "internalType": "uint64",
              "name": "amount",
              "type": "uint64"
            },
            {
              "internalType": "address",
              "name": "user",
              "type": "address"
            },
            {
              "internalType": "uint64",
              "name": "expiry",
              "type": "uint64"
            }
          ],
          "internalType": "struct IERC5006.UserRecord",
          "name": "",
          "type": "tuple"
        }
      ],
      "stateMutability": "view",
      "type": "function"
    },
    {
      "inputs": [],
      "name": "validateLendedTokens",
      "outputs": [
        {
          "internalType": "uint256",
          "name": "",
          "type": "uint256"
        }
      ],
      "stateMutability": "nonpayable",
      "type": "function"
    }
  ],
  "bytecode": "0x60806040523480156200001157600080fd5b50604080516020810190915260008152600a816200002f8162000057565b50600755506200003f3362000069565b600980546001600160a01b031916301790556200022c565b600262000065828262000160565b5050565b600880546001600160a01b038381166001600160a01b0319831681179093556040519116919082907f8be0079c531659141344cd1fd0a4f28419497f9722a3daafe3b4186f6b6457e090600090a35050565b634e487b7160e01b600052604160045260246000fd5b600181811c90821680620000e657607f821691505b6020821081036200010757634e487b7160e01b600052602260045260246000fd5b50919050565b601f8211156200015b57600081815260208120601f850160051c81016020861015620001365750805b601f850160051c820191505b81811015620001575782815560010162000142565b5050505b505050565b81516001600160401b038111156200017c576200017c620000bb565b62000194816200018d8454620000d1565b846200010d565b602080601f831160018114620001cc5760008415620001b35750858301515b600019600386901b1c1916600185901b17855562000157565b600085815260208120601f198616915b82811015620001fd57888601518255948401946001909101908401620001dc565b50858210156200021c5787850151600019600388901b60f8161c191681555b5050505050600190811b01905550565b61408c806200023c6000396000f3fe6080604052600436106102035760003560e01c80638da5cb5b11610118578063e985e9c5116100a0578063f242432a1161006f578063f242432a14610747578063f2fde38b14610767578063f35eeaef14610787578063f5298aca1461079c578063f5b3f424146107bc57600080fd5b8063e985e9c514610636578063ed86eef31461067f578063f0af245a1461069f578063f23a6e611461071a57600080fd5b8063c046372c116100e7578063c046372c146105a1578063cfd44f35146105c1578063d05d2802146105d6578063def2cc56146105f6578063e6cfb63c1461061657600080fd5b80638da5cb5b146104f1578063a22cb46514610519578063b6487cbc14610539578063bc197c811461055957600080fd5b80634a2e88f71161019b5780635c9efd001161016a5780635c9efd0014610471578063715018a6146104865780637634f8731461049b578063883d1d5f146104b15780638abcba64146104d157600080fd5b80634a2e88f7146103185780634e1273f4146103ca5780634fcad101146103f7578063535c0ce31461042f57600080fd5b80630e89341c116101d75780630e89341c1461029557806324822514146102c25780632eb2c2d6146102d857806337516f7c146102f857600080fd5b8062fdd58e1461020857806301ffc9a71461023b57806308a746fa1461026b578063092f577614610280575b600080fd5b34801561021457600080fd5b506102286102233660046133ec565b6107dc565b6040519081526020015b60405180910390f35b34801561024757600080fd5b5061025b61025636600461342c565b610875565b6040519015158152602001610232565b34801561027757600080fd5b506102286108a9565b61029361028e366004613449565b610cbc565b005b3480156102a157600080fd5b506102b56102b0366004613449565b611119565b60405161023291906134af565b3480156102ce57600080fd5b50610228600a5481565b3480156102e457600080fd5b506102936102f3366004613615565b6111ad565b34801561030457600080fd5b50610293610313366004613449565b6111f9565b34801561032457600080fd5b50610383610333366004613449565b600d6020526000908152604090208054600182015460028301546003840154600485015460058601546006870154600790970154959694959394929391926001600160a01b039182169291169088565b60408051988952602089019790975295870194909452606086019290925260808501526001600160a01b0390811660a08501521660c083015260e082015261010001610232565b3480156103d657600080fd5b506103ea6103e53660046136be565b611359565b60405161023291906137c3565b34801561040357600080fd5b50610228610412366004613449565b336000908152601060209081526040808320938352929052205490565b34801561043b57600080fd5b5061022861044a3660046133ec565b60009081526003602090815260408083206001600160a01b03949094168352929052205490565b34801561047d57600080fd5b506103ea611482565b34801561049257600080fd5b506102936114a2565b3480156104a757600080fd5b50610228600b5481565b3480156104bd57600080fd5b506102286104cc3660046137ed565b6114b6565b3480156104dd57600080fd5b506102936104ec366004613449565b61180c565b3480156104fd57600080fd5b506008546040516001600160a01b039091168152602001610232565b34801561052557600080fd5b5061029361053436600461384b565b611a39565b34801561054557600080fd5b506103ea610554366004613449565b611a48565b34801561056557600080fd5b50610588610574366004613913565b63bc197c8160e01b98975050505050505050565b6040516001600160e01b03199091168152602001610232565b3480156105ad57600080fd5b506102936105bc3660046139cd565b611ab2565b3480156105cd57600080fd5b506103ea611b04565b3480156105e257600080fd5b506103ea6105f1366004613449565b611b65565b34801561060257600080fd5b506102286106113660046133ec565b611bce565b34801561062257600080fd5b50610293610631366004613a25565b611ccf565b34801561064257600080fd5b5061025b610651366004613a60565b6001600160a01b03918216600090815260016020908152604080832093909416825291909152205460ff1690565b34801561068b57600080fd5b506102b561069a366004613449565b612169565b3480156106ab57600080fd5b506106bf6106ba366004613449565b612203565b60408051825181526020808401516001600160a01b0390811691830191909152838301516001600160401b0390811693830193909352606080850151909116908201526080928301519091169181019190915260a001610232565b34801561072657600080fd5b50610588610735366004613a93565b63f23a6e6160e01b9695505050505050565b34801561075357600080fd5b50610293610762366004613b0a565b612299565b34801561077357600080fd5b50610293610782366004613b6e565b6122de565b34801561079357600080fd5b50610293612354565b3480156107a857600080fd5b506102936107b7366004613b89565b612380565b3480156107c857600080fd5b5061025b6107d7366004613b6e565b612390565b60006001600160a01b03831661084c5760405162461bcd60e51b815260206004820152602a60248201527f455243313135353a2061646472657373207a65726f206973206e6f742061207660448201526930b634b21037bbb732b960b11b60648201526084015b60405180910390fd5b506000818152602081815260408083206001600160a01b03861684529091529020545b92915050565b60006001600160e01b0319821663309b65b360e21b148061089a575061089a826123fb565b8061086f575061086f8261244b565b33600090815260116020526040812081906108c390612470565b90506000805b8251811015610cb55760005b336000908152600f6020526040812085519091908690859081106108fb576108fb613bbc565b6020026020010151815260200190815260200160002080549050811015610ca257336000908152600f60205260408120855161099491600d9184919082908a908990811061094b5761094b613bbc565b60200260200101518152602001908152602001600020858154811061097257610972613bbc565b9060005260206000200154815260200190815260200160002060070154612203565b60208101519091506001600160a01b0316331480156109bf57504281608001516001600160401b0316105b15610c8e57336000908152600f602052604081208651610a2892908890879081106109ec576109ec613bbc565b602002602001015181526020019081526020016000208381548110610a1357610a13613bbc565b90600052602060002001548260600151612484565b336000908152600f602052604081208651610a879290889087908110610a5057610a50613bbc565b602002602001015181526020019081526020016000208381548110610a7757610a77613bbc565b9060005260206000200154612634565b6040808201516020808401516001600160a01b03166000908152601082528381208551825290915291822080546001600160401b03909216929091610acd908490613be8565b909155505060208101518151610ae39190612687565b336000908152600f602052604081208651909190879086908110610b0957610b09613bbc565b602002602001015181526020019081526020016000206001600f6000336001600160a01b03166001600160a01b031681526020019081526020016000206000888781518110610b5a57610b5a613bbc565b6020026020010151815260200190815260200160002080549050610b7e9190613be8565b81548110610b8e57610b8e613bbc565b9060005260206000200154600f6000336001600160a01b03166001600160a01b031681526020019081526020016000206000878681518110610bd257610bd2613bbc565b602002602001015181526020019081526020016000208381548110610bf957610bf9613bbc565b9060005260206000200181905550600f6000336001600160a01b03166001600160a01b031681526020019081526020016000206000868581518110610c4057610c40613bbc565b60200260200101518152602001908152602001600020805480610c6557610c65613bff565b600190038181906000526020600020016000905590558380610c8690613c15565b945050610c9c565b610c99600183613c2e565b91505b506108d5565b5080610cad81613c15565b9150506108c9565b5092915050565b6000818152600d60205260409020600501546001600160a01b0316610d235760405162461bcd60e51b815260206004820152601d60248201527f53616d706c65353030363a20496e76616c6964205265636f72642049640000006044820152606401610843565b6000818152600d60205260409020600601546001600160a01b031615610da25760405162461bcd60e51b815260206004820152602e60248201527f53616d706c65353030363a205265636f726420616c7265616479206f6e20726560448201526d6e742043616e7420626f72726f7760901b6064820152608401610843565b6000818152600d60205260409020600101543414610e025760405162461bcd60e51b815260206004820152601e60248201527f53616d706c65353030363a20496e73756666696369656e7420707269636500006044820152606401610843565b6000818152600d60205260409020600501546001600160a01b03163303610e775760405162461bcd60e51b8152602060048201526024808201527f53616d706c65353030363a2043616e27742062757920796f7572206f776e207460448201526337b5b2b760e11b6064820152608401610843565b6000818152600d6020526040902060030154421015610eef5760405162461bcd60e51b815260206004820152602e60248201527f53616d706c65353030363a205265636f7264277320737461727474696d65206860448201526d185cc81393d50814915050d2115160921b6064820152608401610843565b6000818152600d60205260409020600401544210610f655760405162461bcd60e51b815260206004820152602d60248201527f53616d706c65353030363a205265636f7264277320656e6474696d652068617360448201526c081899595b88195e1c1a5c9959609a1b6064820152608401610843565b6009546000828152600d6020526040808220600581015481546002830154600493840154945163883d1d5f60e01b81526001600160a01b039384169481019490945233602485015260448401919091526001600160401b03908116606484015290921660848201529192169063883d1d5f9060a4016020604051808303816000875af1158015610ff9573d6000803e3d6000fd5b505050506040513d601f19601f8201168201806040525081019061101d9190613c46565b33600090815260126020908152604080832080546001818101835591855283852001879055868452600d835292819020815161010081018352815481529381015492840192909252600282015490830152600381015460608301526004810154608083015260058101546001600160a01b0390811660a084015260068201541660c08301526007015460e08201529091506110b99083906126d3565b6000828152600d602090815260408083206006810180546001600160a01b03191633179055600781019490945560058401546001600160a01b03168352600f82528083209354835292815291812080546001810182559082529190200155565b60606002805461112890613c5f565b80601f016020809104026020016040519081016040528092919081815260200182805461115490613c5f565b80156111a15780601f10611176576101008083540402835291602001916111a1565b820191906000526020600020905b81548152906001019060200180831161118457829003601f168201915b50505050509050919050565b6001600160a01b0385163314806111c957506111c98533610651565b6111e55760405162461bcd60e51b815260040161084390613c99565b6111f28585858585612844565b5050505050565b6000818152600460205260409020600181015461121e906001600160a01b0316612390565b61122757600080fd5b600181015481546040805160208101909152600081526112669230926001600160a01b038216929091600160a01b90046001600160401b031690612a21565b6001810154815460009081526003602090815260408083206001600160a01b038516845290915281208054600160a01b9093046001600160401b0316929091906112b1908490613be8565b90915550508054600090815260056020908152604080832060028501546001600160a01b0316845290915290206112e89083612b4b565b506000828152600460205260408082209182556001820180546001600160e01b031990811690915560029092018054909216909155517fe5e4cc148925690191c27bf527786e1ffbc70eb2e0e1efc9cafc6429b1ee777a9061134d9084815260200190565b60405180910390a15050565b606081518351146113be5760405162461bcd60e51b815260206004820152602960248201527f455243313135353a206163636f756e747320616e6420696473206c656e677468604482015268040dad2e6dac2e8c6d60bb1b6064820152608401610843565b600083516001600160401b038111156113d9576113d96134c2565b604051908082528060200260200182016040528015611402578160200160208202803683370190505b50905060005b845181101561147a5761144d85828151811061142657611426613bbc565b602002602001015185838151811061144057611440613bbc565b60200260200101516107dc565b82828151811061145f5761145f613bbc565b602090810291909101015261147381613c15565b9050611408565b509392505050565b33600090815260116020526040902060609061149d90612470565b905090565b6114aa612b57565b6114b46000612bb1565b565b60006114c186612390565b6114ca57600080fd5b6001600160a01b0385166115205760405162461bcd60e51b815260206004820152601f60248201527f757365722063616e6e6f7420626520746865207a65726f2061646472657373006044820152606401610843565b6000836001600160401b0316116115795760405162461bcd60e51b815260206004820152601d60248201527f616d6f756e74206d7573742062652067726561746572207468616e20300000006044820152606401610843565b42826001600160401b0316116115df5760405162461bcd60e51b815260206004820152602560248201527f657870697279206d7573742061667465722074686520626c6f636b2074696d6560448201526407374616d760dc1b6064820152608401610843565b60075460008581526005602090815260408083206001600160a01b038a168452909152902061160d90612c03565b1061165a5760405162461bcd60e51b815260206004820152601d60248201527f757365722063616e6e6f742068617665206d6f7265207265636f7264730000006044820152606401610843565b61167f863086866001600160401b031660405180602001604052806000815250612a21565b60008481526003602090815260408083206001600160a01b038a168452909152812080546001600160401b03861692906116ba908490613c2e565b9091555050600680549060006116cf83613c15565b90915550506040805160a0810182528581526001600160a01b0388811660208084019182526001600160401b038881168587019081528b8516606087018181528a841660808901908152600680546000908152600488528b81209a518b55975160018b0180549651918b166001600160e01b031997881617600160a01b928916830217905592516002909a01805492519a909916919094161797909316909202959095179093559254888252600584528482209282529190925291902061179591612c0d565b5060065460408051918252602082018690526001600160401b03858116838301526001600160a01b03898116606085015288166080840152841660a0830152517faa05e03d03c60cd1d2749f96e50df9c0f2910357e2213b7fbb8c838c9e207d079181900360c00190a15060065495945050505050565b6000818152600d60205260409020600501546001600160a01b03166118735760405162461bcd60e51b815260206004820152601d60248201527f53616d706c65353030363a20496e76616c6964205265636f72642049640000006044820152606401610843565b6000818152600d60205260409020600501546001600160a01b031633146118ed5760405162461bcd60e51b815260206004820152602860248201527f53616d706c65353030363a204e6f7420616e2076616c6964206f776e6572206f60448201526719881c9958dbdc9960c21b6064820152608401610843565b6000818152600d60205260409020600601546001600160a01b03161561196d5760405162461bcd60e51b815260206004820152602f60248201527f53616d706c65353030363a20546f6b656e206973206f6e2072656e742043616e60448201526e1d081c995b5bdd99481c9958dbdc99608a1b6064820152608401610843565b6000818152600d602090815260409182902082516101008101845281548152600182015492810192909252600281015492820192909252600382015460608201526004820154608082015260058201546001600160a01b0390811660a083015260068301541660c082015260079091015460e08201526119ee9082906126d3565b6000818152600d602090815260408083206002810154338552601084528285209154855292528220805491929091611a27908490613be8565b90915550611a36905081612634565b50565b611a44338383612c19565b5050565b336000908152600e602090815260408083208484528252918290208054835181840281018401909452808452606093928301828280156111a157602002820191906000526020600020905b815481526020019060010190808311611a935750505050509050919050565b600a546000908152600c60205260409020611acd8382613d2d565b50611aeb33600a548360405180602001604052806000815250612cf9565b600a8054906000611afb83613c15565b91905055505050565b33600090815260126020908152604091829020805483518184028101840190945280845260609392830182828015611b5b57602002820191906000526020600020905b815481526020019060010190808311611b47575b5050505050905090565b336000908152600f602090815260408083208484528252918290208054835181840281018401909452808452606093928301828280156111a15760200282019190600052602060002090815481526020019060010190808311611a935750505050509050919050565b60008181526005602090815260408083206001600160a01b038616845290915281208190611bfb90612470565b905060005b8151811015611cc75760046000838381518110611c1f57611c1f613bbc565b6020026020010151815260200190815260200160002060020160149054906101000a90046001600160401b03166001600160401b03164211611cb55760046000838381518110611c7157611c71613bbc565b6020026020010151815260200190815260200160002060010160149054906101000a90046001600160401b03166001600160401b031683611cb29190613c2e565b92505b80611cbf81613c15565b915050611c00565b505092915050565b3385856000611cde84846107dc565b6001600160a01b03851660009081526010602090815260408083208784529091529020549091508281831015611d1d57611d188383613be8565b611d27565b611d278284613be8565b1015611d8e5760405162461bcd60e51b815260206004820152603060248201527f53616d706c65353030363a204c656e64657220646f6e74206861766520656e6f60448201526f75676820746f6b656e20636f7069657360801b6064820152608401610843565b60008811611e045760405162461bcd60e51b815260206004820152603760248201527f53616d706c65353030363a2052656e74696e672070726963652073686f756c6460448201527f20626520626520676561746572207468616e207a65726f0000000000000000006064820152608401610843565b600087118015611e145750600086115b611e6e5760405162461bcd60e51b815260206004820152602560248201527f53616d706c65353030363a2054696d657374616d70732063616e6e6f74206265604482015264207a65726f60d81b6064820152608401610843565b858710611ed95760405162461bcd60e51b815260206004820152603360248201527f53616d706c65353030363a2053746172742074696d652073686f756c64206265604482015272206c657373207468616e20656e642074696d6560681b6064820152608401610843565b428611611f4e5760405162461bcd60e51b815260206004820152603860248201527f53616d706c65353030363a20456e642074696d652073686f756c64206265206760448201527f726561746572207468616e2063757272656e742074696d6500000000000000006064820152608401610843565b60008911611fa85760405162461bcd60e51b815260206004820152602160248201527f53616d706c65353030363a20436f706965732063616e6e6f74206265207a65726044820152606f60f81b6064820152608401610843565b6040518061010001604052808b81526020018981526020018a8152602001888152602001878152602001336001600160a01b0316815260200160006001600160a01b031681526020016000815250600d6000600b548152602001908152602001600020600082015181600001556020820151816001015560408201518160020155606082015181600301556080820151816004015560a08201518160050160006101000a8154816001600160a01b0302191690836001600160a01b0316021790555060c08201518160060160006101000a8154816001600160a01b0302191690836001600160a01b0316021790555060e08201518160070155905050600e6000336001600160a01b03166001600160a01b0316815260200190815260200160002060008b8152602001908152602001600020600b54908060018154018082558091505060019003906000526020600020016000909190919091505561210d338b612e0d565b3360009081526010602090815260408083208d8452909152812080548b9290612137908490613c2e565b909155506121489050306001611a39565b600b805490600061215883613c15565b919050555050505050505050505050565b600c602052600090815260409020805461218290613c5f565b80601f01602080910402602001604051908101604052809291908181526020018280546121ae90613c5f565b80156121fb5780601f106121d0576101008083540402835291602001916121fb565b820191906000526020600020905b8154815290600101906020018083116121de57829003601f168201915b505050505081565b6040805160a08101825260008082526020820181905291810182905260608101829052608081019190915250600090815260046020908152604091829020825160a0810184528154815260018201546001600160a01b03808216948301949094526001600160401b03600160a01b9182900481169583019590955260029092015492831660608201529104909116608082015290565b6001600160a01b0385163314806122b557506122b58533610651565b6122d15760405162461bcd60e51b815260040161084390613c99565b6111f28585858585612a21565b6122e6612b57565b6001600160a01b03811661234b5760405162461bcd60e51b815260206004820152602660248201527f4f776e61626c653a206e6577206f776e657220697320746865207a65726f206160448201526564647265737360d01b6064820152608401610843565b611a3681612bb1565b60405133904780156108fc02916000818181858888f19350505050158015611a36573d6000803e3d6000fd5b61238b838383612e57565b505050565b60006001600160a01b0382163314806123ae57506123ae8233610651565b6123f35760405162461bcd60e51b81526020600482015260166024820152751bdb9b1e481bdddb995c881bdc88185c1c1c9bdd995960521b6044820152606401610843565b506001919050565b60006001600160e01b03198216636cdb3d1360e11b148061242c57506001600160e01b031982166303a24d0760e21b145b8061086f57506301ffc9a760e01b6001600160e01b031983161461086f565b60006001600160e01b03198216630271189760e51b148061086f575061086f826123fb565b6060600061247d83612fd3565b9392505050565b60005b6001600160a01b03821660009081526012602052604090205481101561238b576001600160a01b03821660009081526012602052604090208054849190839081106124d4576124d4613bbc565b906000526020600020015403612622576009546000848152600d602052604090819020600701549051630dd45bdf60e21b81526001600160a01b03909216916337516f7c916125299160040190815260200190565b600060405180830381600087803b15801561254357600080fd5b505af1158015612557573d6000803e3d6000fd5b505050506001600160a01b0382166000908152601260205260409020805461258190600190613be8565b8154811061259157612591613bbc565b906000526020600020015460126000846001600160a01b03166001600160a01b0316815260200190815260200160002082815481106125d2576125d2613bbc565b60009182526020808320909101929092556001600160a01b038416815260129091526040902080548061260757612607613bff565b60019003818190600052602060002001600090559055505050565b8061262c81613c15565b915050612487565b6000908152600d60205260408120818155600181018290556002810182905560038101829055600481018290556005810180546001600160a01b0319908116909155600682018054909116905560070155565b6001600160a01b03821660009081526010602090815260408083208484529091528120549003611a44576001600160a01b038216600090815260116020526040902061238b9082612b4b565b60005b60a08201516001600160a01b03166000908152600e602090815260408083208551845290915290205481101561238b5760a08201516001600160a01b03166000908152600e6020908152604080832085518452909152902080548491908390811061274357612743613bbc565b9060005260206000200154036128325760a0820180516001600160a01b039081166000908152600e6020818152604080842088518552825280842095519094168352908152828220865183529052205461279f90600190613be8565b815481106127af576127af613bbc565b600091825260208083209091015460a08501516001600160a01b03168352600e825260408084208651855290925291208054839081106127f1576127f1613bbc565b600091825260208083209091019290925560a08401516001600160a01b03168152600e82526040808220855183529092522080548061260757612607613bff565b8061283c81613c15565b9150506126d6565b81518351146128a65760405162461bcd60e51b815260206004820152602860248201527f455243313135353a2069647320616e6420616d6f756e7473206c656e677468206044820152670dad2e6dac2e8c6d60c31b6064820152608401610843565b6001600160a01b0384166128cc5760405162461bcd60e51b815260040161084390613dec565b3360005b84518110156129b35760008582815181106128ed576128ed613bbc565b60200260200101519050600085838151811061290b5761290b613bbc565b602090810291909101810151600084815280835260408082206001600160a01b038e16835290935291909120549091508181101561295b5760405162461bcd60e51b815260040161084390613e31565b6000838152602081815260408083206001600160a01b038e8116855292528083208585039055908b16825281208054849290612998908490613c2e565b92505081905550505050806129ac90613c15565b90506128d0565b50846001600160a01b0316866001600160a01b0316826001600160a01b03167f4a39dc06d4c0dbc64b70af90fd698a233a518aa5d07e595d983b8c0526c8f7fb8787604051612a03929190613e7b565b60405180910390a4612a1981878787878761302d565b505050505050565b6001600160a01b038416612a475760405162461bcd60e51b815260040161084390613dec565b336000612a5385613188565b90506000612a6085613188565b90506000868152602081815260408083206001600160a01b038c16845290915290205485811015612aa35760405162461bcd60e51b815260040161084390613e31565b6000878152602081815260408083206001600160a01b038d8116855292528083208985039055908a16825281208054889290612ae0908490613c2e565b909155505060408051888152602081018890526001600160a01b03808b16928c821692918816917fc3d58168c5ae7397731d063d5bbf3d657854427343f4c083240f7aacaa2d0f62910160405180910390a4612b40848a8a8a8a8a6131d3565b505050505050505050565b600061247d838361328e565b6008546001600160a01b031633146114b45760405162461bcd60e51b815260206004820181905260248201527f4f776e61626c653a2063616c6c6572206973206e6f7420746865206f776e65726044820152606401610843565b600880546001600160a01b038381166001600160a01b0319831681179093556040519116919082907f8be0079c531659141344cd1fd0a4f28419497f9722a3daafe3b4186f6b6457e090600090a35050565b600061086f825490565b600061247d8383613381565b816001600160a01b0316836001600160a01b031603612c8c5760405162461bcd60e51b815260206004820152602960248201527f455243313135353a2073657474696e6720617070726f76616c20737461747573604482015268103337b91039b2b63360b91b6064820152608401610843565b6001600160a01b03838116600081815260016020908152604080832094871680845294825291829020805460ff191686151590811790915591519182527f17307eab39ab6107e8899845ad3d59bd9653f200f220920489ca2b5937696c31910160405180910390a3505050565b6001600160a01b038416612d595760405162461bcd60e51b815260206004820152602160248201527f455243313135353a206d696e7420746f20746865207a65726f206164647265736044820152607360f81b6064820152608401610843565b336000612d6585613188565b90506000612d7285613188565b90506000868152602081815260408083206001600160a01b038b16845290915281208054879290612da4908490613c2e565b909155505060408051878152602081018790526001600160a01b03808a1692600092918716917fc3d58168c5ae7397731d063d5bbf3d657854427343f4c083240f7aacaa2d0f62910160405180910390a4612e04836000898989896131d3565b50505050505050565b6001600160a01b0382166000908152601060209081526040808320848452909152902054611a44576001600160a01b038216600090815260116020526040902061238b9082612c0d565b6001600160a01b038316612eb95760405162461bcd60e51b815260206004820152602360248201527f455243313135353a206275726e2066726f6d20746865207a65726f206164647260448201526265737360e81b6064820152608401610843565b336000612ec584613188565b90506000612ed284613188565b60408051602080820183526000918290528882528181528282206001600160a01b038b1683529052205490915084811015612f5b5760405162461bcd60e51b8152602060048201526024808201527f455243313135353a206275726e20616d6f756e7420657863656564732062616c604482015263616e636560e01b6064820152608401610843565b6000868152602081815260408083206001600160a01b038b81168086529184528285208a8703905582518b81529384018a90529092908816917fc3d58168c5ae7397731d063d5bbf3d657854427343f4c083240f7aacaa2d0f62910160405180910390a4604080516020810190915260009052612e04565b6060816000018054806020026020016040519081016040528092919081815260200182805480156111a15760200282019190600052602060002090815481526020019060010190808311611a935750505050509050919050565b6001600160a01b0384163b15612a195760405163bc197c8160e01b81526001600160a01b0385169063bc197c81906130719089908990889088908890600401613ea9565b6020604051808303816000875af19250505080156130ac575060408051601f3d908101601f191682019092526130a991810190613f07565b60015b613158576130b8613f24565b806308c379a0036130f157506130cc613f40565b806130d757506130f3565b8060405162461bcd60e51b815260040161084391906134af565b505b60405162461bcd60e51b815260206004820152603460248201527f455243313135353a207472616e7366657220746f206e6f6e2d455243313135356044820152732932b1b2b4bb32b91034b6b83632b6b2b73a32b960611b6064820152608401610843565b6001600160e01b0319811663bc197c8160e01b14612e045760405162461bcd60e51b815260040161084390613fc9565b604080516001808252818301909252606091600091906020808301908036833701905050905082816000815181106131c2576131c2613bbc565b602090810291909101015292915050565b6001600160a01b0384163b15612a195760405163f23a6e6160e01b81526001600160a01b0385169063f23a6e61906132179089908990889088908890600401614011565b6020604051808303816000875af1925050508015613252575060408051601f3d908101601f1916820190925261324f91810190613f07565b60015b61325e576130b8613f24565b6001600160e01b0319811663f23a6e6160e01b14612e045760405162461bcd60e51b815260040161084390613fc9565b600081815260018301602052604081205480156133775760006132b2600183613be8565b85549091506000906132c690600190613be8565b905081811461332b5760008660000182815481106132e6576132e6613bbc565b906000526020600020015490508087600001848154811061330957613309613bbc565b6000918252602080832090910192909255918252600188019052604090208390555b855486908061333c5761333c613bff565b60019003818190600052602060002001600090559055856001016000868152602001908152602001600020600090556001935050505061086f565b600091505061086f565b60008181526001830160205260408120546133c85750815460018181018455600084815260208082209093018490558454848252828601909352604090209190915561086f565b50600061086f565b80356001600160a01b03811681146133e757600080fd5b919050565b600080604083850312156133ff57600080fd5b613408836133d0565b946020939093013593505050565b6001600160e01b031981168114611a3657600080fd5b60006020828403121561343e57600080fd5b813561247d81613416565b60006020828403121561345b57600080fd5b5035919050565b6000815180845260005b818110156134885760208185018101518683018201520161346c565b8181111561349a576000602083870101525b50601f01601f19169290920160200192915050565b60208152600061247d6020830184613462565b634e487b7160e01b600052604160045260246000fd5b601f8201601f191681016001600160401b03811182821017156134fd576134fd6134c2565b6040525050565b60006001600160401b0382111561351d5761351d6134c2565b5060051b60200190565b600082601f83011261353857600080fd5b8135602061354582613504565b60405161355282826134d8565b83815260059390931b850182019282810191508684111561357257600080fd5b8286015b8481101561358d5780358352918301918301613576565b509695505050505050565b60006001600160401b038311156135b1576135b16134c2565b6040516135c8601f8501601f1916602001826134d8565b8091508381528484840111156135dd57600080fd5b83836020830137600060208583010152509392505050565b600082601f83011261360657600080fd5b61247d83833560208501613598565b600080600080600060a0868803121561362d57600080fd5b613636866133d0565b9450613644602087016133d0565b935060408601356001600160401b038082111561366057600080fd5b61366c89838a01613527565b9450606088013591508082111561368257600080fd5b61368e89838a01613527565b935060808801359150808211156136a457600080fd5b506136b1888289016135f5565b9150509295509295909350565b600080604083850312156136d157600080fd5b82356001600160401b03808211156136e857600080fd5b818501915085601f8301126136fc57600080fd5b8135602061370982613504565b60405161371682826134d8565b83815260059390931b850182019282810191508984111561373657600080fd5b948201945b8386101561375b5761374c866133d0565b8252948201949082019061373b565b9650508601359250508082111561377157600080fd5b5061377e85828601613527565b9150509250929050565b600081518084526020808501945080840160005b838110156137b85781518752958201959082019060010161379c565b509495945050505050565b60208152600061247d6020830184613788565b80356001600160401b03811681146133e757600080fd5b600080600080600060a0868803121561380557600080fd5b61380e866133d0565b945061381c602087016133d0565b935060408601359250613831606087016137d6565b915061383f608087016137d6565b90509295509295909350565b6000806040838503121561385e57600080fd5b613867836133d0565b91506020830135801515811461387c57600080fd5b809150509250929050565b60008083601f84011261389957600080fd5b5081356001600160401b038111156138b057600080fd5b6020830191508360208260051b85010111156138cb57600080fd5b9250929050565b60008083601f8401126138e457600080fd5b5081356001600160401b038111156138fb57600080fd5b6020830191508360208285010111156138cb57600080fd5b60008060008060008060008060a0898b03121561392f57600080fd5b613938896133d0565b975061394660208a016133d0565b965060408901356001600160401b038082111561396257600080fd5b61396e8c838d01613887565b909850965060608b013591508082111561398757600080fd5b6139938c838d01613887565b909650945060808b01359150808211156139ac57600080fd5b506139b98b828c016138d2565b999c989b5096995094979396929594505050565b600080604083850312156139e057600080fd5b82356001600160401b038111156139f657600080fd5b8301601f81018513613a0757600080fd5b613a1685823560208401613598565b95602094909401359450505050565b600080600080600060a08688031215613a3d57600080fd5b505083359560208501359550604085013594606081013594506080013592509050565b60008060408385031215613a7357600080fd5b613a7c836133d0565b9150613a8a602084016133d0565b90509250929050565b60008060008060008060a08789031215613aac57600080fd5b613ab5876133d0565b9550613ac3602088016133d0565b9450604087013593506060870135925060808701356001600160401b03811115613aec57600080fd5b613af889828a016138d2565b979a9699509497509295939492505050565b600080600080600060a08688031215613b2257600080fd5b613b2b866133d0565b9450613b39602087016133d0565b9350604086013592506060860135915060808601356001600160401b03811115613b6257600080fd5b6136b1888289016135f5565b600060208284031215613b8057600080fd5b61247d826133d0565b600080600060608486031215613b9e57600080fd5b613ba7846133d0565b95602085013595506040909401359392505050565b634e487b7160e01b600052603260045260246000fd5b634e487b7160e01b600052601160045260246000fd5b600082821015613bfa57613bfa613bd2565b500390565b634e487b7160e01b600052603160045260246000fd5b600060018201613c2757613c27613bd2565b5060010190565b60008219821115613c4157613c41613bd2565b500190565b600060208284031215613c5857600080fd5b5051919050565b600181811c90821680613c7357607f821691505b602082108103613c9357634e487b7160e01b600052602260045260246000fd5b50919050565b6020808252602e908201527f455243313135353a2063616c6c6572206973206e6f7420746f6b656e206f776e60408201526d195c881bdc88185c1c1c9bdd995960921b606082015260800190565b601f82111561238b57600081815260208120601f850160051c81016020861015613d0e5750805b601f850160051c820191505b81811015612a1957828155600101613d1a565b81516001600160401b03811115613d4657613d466134c2565b613d5a81613d548454613c5f565b84613ce7565b602080601f831160018114613d8f5760008415613d775750858301515b600019600386901b1c1916600185901b178555612a19565b600085815260208120601f198616915b82811015613dbe57888601518255948401946001909101908401613d9f565b5085821015613ddc5787850151600019600388901b60f8161c191681555b5050505050600190811b01905550565b60208082526025908201527f455243313135353a207472616e7366657220746f20746865207a65726f206164604082015264647265737360d81b606082015260800190565b6020808252602a908201527f455243313135353a20696e73756666696369656e742062616c616e636520666f60408201526939103a3930b739b332b960b11b606082015260800190565b604081526000613e8e6040830185613788565b8281036020840152613ea08185613788565b95945050505050565b6001600160a01b0386811682528516602082015260a060408201819052600090613ed590830186613788565b8281036060840152613ee78186613788565b90508281036080840152613efb8185613462565b98975050505050505050565b600060208284031215613f1957600080fd5b815161247d81613416565b600060033d1115613f3d5760046000803e5060005160e01c5b90565b600060443d1015613f4e5790565b6040516003193d81016004833e81513d6001600160401b038160248401118184111715613f7d57505050505090565b8285019150815181811115613f955750505050505090565b843d8701016020828501011115613faf5750505050505090565b613fbe602082860101876134d8565b509095945050505050565b60208082526028908201527f455243313135353a204552433131353552656365697665722072656a656374656040820152676420746f6b656e7360c01b606082015260800190565b6001600160a01b03868116825285166020820152604081018490526060810183905260a06080820181905260009061404b90830184613462565b97965050505050505056fea2646970667358221220b3e7299ae245e2bc00f1bd419c468ca9f30e5c41d9274547295ea77efb5eab8464736f6c634300080f0033",
  "linkReferences": {},
  "deployedLinkReferences": {}
}